:020000040000fa
:080000000002040000000000f2
:020000040000fa
:10000800d80b0000d80b0000d80b0000d80b00005c
:10001800d80b0000d80b0000d80b0000d80b00004c
:10002800d80b0000d80b0000d80b0000d80b00003c
:10003800d80b0000d80b0000d80b0000d80b00002c
:10004800d80b0000d80b0000d80b000012030000ea
:1000580086030000d80b0000d80b0000d80b000066
:10006800d80b0000d80b0000d80b0000d80b0000fc
:10007800d80b0000d80b0000d80b0000d80b0000ec
:10008800d80b0000d80b0000d80b0000d80b0000dc
:10009800d80b0000d80b0000900200000a030000f3
:1000a800d80b0000d80b0000d80b0000d80b0000bc
:1000b800d80b0000d80b0000d80b0000d80b0000ac
:1000c800d80b0000d80b0000d80b0000d80b00009c
:1000d800d80b0000d80b0000d80b0000d80b00008c
:1000e800d80b0000d80b0000d80b0000d80b00007c
:1000f800d80b0000d80b0000d80b0000d80b00006c
:10010800d80b0000d80b0000d80b0000d80b00005b
:10011800d80b0000d80b0000d80b0000d80b00004b
:10012800d80b0000d80b0000d80b0000d80b00003b
:10013800d80b0000d80b0000d80b0000d80b00002b
:10014800d80b0000d80b0000d80b0000d80b00001b
:10015800d80b0000d80b0000d80b0000d80b00000b
:10016800d80b0000d80b0000d80b0000d80b0000fb
:10017800d80b0000d80b0000d80b0000d80b0000eb
:10018800d80b0000d80b0000d80b0000d80b0000db
:10019800d80b0000d80b0000d80b0000d80b0000cb
:1001a800d80b0000d80b0000d80b0000d80b0000bb
:1001b800d80b0000d80b0000d80b0000d80b0000ab
:1001c800d80b0000d80b0000d80b0000d80b00009b
:1001d800d80b0000d80b0000d80b0000d80b00008b
:1001e800d80b0000d80b0000d80b0000d80b00007b
:0801f800d80b0000d80b000039
:020000040000fa
:10020800d80b0000d80b0000d80b0000d80b00005a
:10021800d80b0000d80b0000d80b0000d80b00004a
:10022800d80b0000d80b0000d80b0000d80b00003a
:10023800d80b0000d80b0000d80b0000d80b00002a
:10024800d80b0000d80b0000d80b000012030000e8
:1002580086030000d80b0000d80b0000d80b000064
:10026800d80b0000d80b0000d80b0000d80b0000fa
:10027800d80b0000d80b0000d80b0000d80b0000ea
:10028800d80b0000d80b0000d80b0000d80b0000da
:10029800d80b0000d80b0000900200000a030000f1
:1002a800d80b0000d80b0000d80b0000d80b0000ba
:1002b800d80b0000d80b0000d80b0000d80b0000aa
:1002c800d80b0000d80b0000d80b0000d80b00009a
:1002d800d80b0000d80b0000d80b0000d80b00008a
:1002e800d80b0000d80b0000d80b0000d80b00007a
:1002f800d80b0000d80b0000d80b0000d80b00006a
:10030800d80b0000d80b0000d80b0000d80b000059
:10031800d80b0000d80b0000d80b0000d80b000049
:10032800d80b0000d80b0000d80b0000d80b000039
:10033800d80b0000d80b0000d80b0000d80b000029
:10034800d80b0000d80b0000d80b0000d80b000019
:10035800d80b0000d80b0000d80b0000d80b000009
:10036800d80b0000d80b0000d80b0000d80b0000f9
:10037800d80b0000d80b0000d80b0000d80b0000e9
:10038800d80b0000d80b0000d80b0000d80b0000d9
:10039800d80b0000d80b0000d80b0000d80b0000c9
:1003a800d80b0000d80b0000d80b0000d80b0000b9
:1003b800d80b0000d80b0000d80b0000d80b0000a9
:1003c800d80b0000d80b0000d80b0000d80b000099
:1003d800d80b0000d80b0000d80b0000d80b000089
:1003e800d80b0000d80b0000d80b0000d80b000079
:0803f800d80b0000d80b000037
:020000040000fa
:10040000cf8720000e7f22000e0188000000000030
:100410000c000700e0cf20000100200011000700c1
:10042000000020000000e000020032000000020096
:100430000000000004060200000000000040da0096
:100440000000fe004440a900000020000000e00081
:100450000300320000002000a00188004440a800f2
:100460000000060091018800800078000000eb0089
:1004700015003700e280400032a0b4009101ba00bc
:10048000e280400032a0b4009102ba00e280400055
:1004900032a0b4000002eb00472bde00f507b200eb
:1004a000602ce10004003a000059eb008301e900f0
:1004b000fdff3e00040037006128e100010032002a
:1004c0000082eb00040007001101ba000200e00006
:1004d000e8ff3a00000006003159ba008301e90044
:1004e0000c0032002159ba008301e90008003200f3
:1004f0000400e00003003a00e280400032a0b400b3
:10050000f5ff370011d9ba008301e900faff3a007c
:100510008100e800e180400032a0b4000000060045
:10052000809fbe00821f78000000fa0051438000c7
:10053000b0118000004078000284200000f17800b3
:1005400050438000e00f5000040032005043800010
:100550000000e800504388000700370000842000b6
:1005600010407800e24f500003003a0050438000f2
:100570000000e8005043880050438000e20f500024
:1005800004003a0010842000104078000080fb0036
:100590007043880050438000e20f50000f00360087
:1005a0005143800070438000808f50000b003a0060
:1005b000504380000000e900018420006140780081
:1005c000e34f500005003a001187200010c0b3002f
:1005d000804878000000eb005043880050438000c2
:1005e000e20f500006003600514380007043800047
:1005f000808f5000020039000000eb00504388005b
:1006000087c0a9000080fa004f0178004f00be00ab
:10061000004006000000fa0087e0a9000080fa0010
:1006200000400600809fbe00821f78000000fa0094
:10063000414380003011800000407800028020009b
:1006400000f1780040438000e00f500004003200c9
:10065000404380000000e800404388000700370066
:100660000080200010407800e24f500003003a0064
:10067000404380000000e800404388004043800081
:10068000e20f500004003a00108020001040780073
:100690000080fb006043880041438000604380008d
:1006a000808f50000b003a00404380000000e900ba
:1006b0000180200061407800e34f500005003a00bf
:1006c0000187200010c0b300804878000000eb00d4
:1006d0004043880040438000e20f5000060036008f
:1006e0004143800060438000808f50000200390049
:1006f0000000eb00404388008560a9000080fa00fc
:100700004f0178004f00be00004006000000fa00d4
:100710008580a9000080fa00004006000000fa0071
:10072000900120004011880021e2a80021a2a90028
:100730002182a9002162a90001118000f0cf2f00c1
:100740008080600000202000008070000011880080
:1007500020e2a90020c2a90020a2a9002082a900ad
:100760002062a9000111800090ff2f00008060002e
:10077000001188002002a90023e2a90011118000c5
:10078000f0ff2d0000806000101188002362a90096
:100790002342a80011118000f0f32f0000806000b8
:1007a0001011880022a2a9008560a9009560a80008
:1007b0000080fa00000006000000fa0031e2a90003
:1007c00031a2a9003182a9003162a9008111800003
:1007d000f0cf2f00008060008011880030e2a90077
:1007e00030c2a90030a2a9003082a9003062a9005d
:1007f0008111800090ff2f00008060008011880030
:100800003002a900c0002000c011880033e2a90016
:1008100033c2a90033a2a9003362a9003342a90060
:100820003322a9003302a90091118000f0f32f00b8
:10083000008060009011880032a2a9003282a900d5
:100840003262a9003242a9003222a9003202a90074
:1008500087e0a90097e0a90087c0a90097c0a80079
:1008600031e2a8003342a8000080fa000000060030
:100870000000fa00000c2200901688000000eb0037
:10088000001688000080eb0060198800f00f20003f
:10089000c0168800c682a900ca82a900c7c2a900e2
:1008a000cbc2a900e522a900e922a800e4c2a90060
:1008b000e8c2a800e4e2a900e8e2a800d282a90008
:1008c000d2a2a900c7e2a9000080fa000000060039
:1008d0000800fa002007980031079800ca82a80093
:1008e0000000eb00000f7800010037001e0fe80049
:1008f000300620009e007800808f5000fbff3600fd
:100900000000eb001007980017003700ae009000c1
:100910001e00900000804000104078000080fb0026
:10092000201188000000000011118000001020003c
:1009300000806000e00f5000fbff32000000eb0081
:10094000000f7800010037001e0fe800f0182000ab
:100950009e007800808f5000fbff36001e00900044
:100960000000e800100798009e0090003e009000f4
:10097000808f5000e5ff39000000eb00000f780089
:10098000010037001e0fe800700c20009e00780068
:10099000808f5000fbff3600ca82a9000080fa0059
:1009a000000006000800fa002007980031079800b0
:1009b0000000eb00000f7800150037000000eb008e
:1009c00010079800030037001e0090000000e800a8
:1009d000100798001e009000e40f5000faff360048
:1009e0002e0090001e004000104078000080fb00a8
:1009f000a01188000000000091118000001020006c
:100a000000806000e00f5000fbff32001e0fe80086
:100a10003e0090009e007800808f5000e7ff390074
:100a20000080fa00000006000200fa00f03f2000fb
:100a3000103088003030280000308800100020007e
:100a4000603088000000eb00000f780001003700e4
:100a50001e0fe800f0342c009e007800808f5000bc
:100a6000fbff360080032000403088000000eb00d0
:100a7000000f7800010037001e0fe800f0342c0052
:100a80009e007800808f5000fbff3600c0002000e1
:100a9000403088000000eb00000f780001003700b4
:100aa0001e0fe800f0342c009e007800808f50006c
:100ab000fbff360010002000403088000000eb00f3
:100ac000000f7800010037001e0fe800f0342c0002
:100ad0009e007800808f5000fbff360060002000f1
:100ae00040308800d682a9000008200040308800ed
:100af0000000eb00000f7800010037001e0fe80037
:100b0000703e20009e007800808f5000fbff360072
:100b1000a20c020000000000420c020000000000d5
:100b20000080fa00000006000600fa002047980046
:100b3000210798000000eb00000f7800010037004b
:100b40001e0fe800d06020009e007800808f5000cb
:100b5000fbff34002e009000004078000000fb00f6
:100b6000403088000000eb00000f780001003700e3
:100b70001e0fe800d06020009e007800808f50009b
:100b8000fbff34000000eb00000f7800010037008d
:100b90001e0fe800d06020009e007800808f50007b
:100ba000fbff3400d6a2a8000000eb00000f780085
:100bb000010037001e0fe800100320009e0078009f
:100bc000808f5000fbff34002e4090000000fb009f
:100bd000403088000000eb00000f78000100370073
:100be0001e0fe800100320009e007800808f500048
:100bf000fbff3400d6a2a9000000eb00000f780034
:100c00001e0fe800feff37007a00fa0040c1b30073
:100c1000304f980040a7a90083ff07000000eb00b9
:100c2000000f780006003700b00220000e004000e0
:100c30009e00400000c2b300804878001e0fe8000c
:100c4000f00420009e007800808f5000f6ff3600f0
:100c5000420c02000000000070c4b30040d79800ae
:100c600050c4b30050d79800e0c4b30060d79800d8
:100c700030c3b30070d7980070c7b30070e7980016
:100c800070c7b30000ef980070c7b30010ef980072
:100c9000e0c2b30020ef980070c6b30030ef9800b8
:100ca00050c6b30040ef9800e0c6b30050ef980084
:100cb00030c3b30060ef980030c7b30070ef980006
:100cc00090c7b30000f7980030c7b30010f7980042
:100cd00040c7b30020f7980050c6b30030f7980023
:100ce000d0c6b30040f7980030c7b30050f7980063
:100cf000e0c2b30060f7980030c6b30070f7980008
:100d0000f0c6b30000ff9800d0c6b30010ff9800f3
:100d10000000eb00000f780007003700b002200051
:100d20000e0040001e00400010407800c20c02007f
:100d3000000000001e0fe800e00420009e00780084
:100d4000808f5000f5ff3600420c020000000000ca
:100d500099fe070071fe0700c5fe070011872000fd
:100d60000040eb0080487800018720000040eb0045
:100d7000804878000000eb00404388000000eb0052
:100d80005043880020c0b300704f9800c0c0b3002b
:100d9000005798000040eb001057980040c6b30081
:100da000205798000040eb00305798000040eb00bf
:100db000405798000040eb00505798000040eb006f
:100dc000605798000040eb00705798000040eb001f
:100dd000005f98000040eb00105f980030c0b30047
:100de000205f98000000eb00000f7800050037003e
:100df0007b0047009e0040000040eb0080487800e8
:100e00001e0fe8001e007800ef0f5000f8ff3600bc
:100e1000010037000000000000872000104078002b
:100e2000e04f5000a8003200018720000040eb0096
:100e3000804878003080200010407800f04f50004b
:100e4000040032003080200010407800f14f500044
:100e50000b003a0010802000104078000080fb005a
:100e60008000780000802000cefe07003080200047
:100e700010407800f04f500001003a00e8e2a8006e
:100e80003080200010407800ef4f50008e003e0070
:100e90001080200010407800ec4f500007003a000e
:100ea00010802000104078000080fb008000780057
:100eb00000802000bbfe0700830037003080200048
:100ec00010407800ef4f500044003e0010c0b300c7
:100ed000404f980010c0b300504f98000040eb0006
:100ee000604f98003a003700118720000040eb0067
:100ef0008048780010802000104078000080fb00bf
:100f00008000780000802000a6fe0700100020006e
:100f100001002000300798004107980006003700c4
:100f20003e009000ce00900061004000e08048004c
:100f300030079800410798003e019000ce019000d4
:100f4000f0d3200031002000800f5100818f590024
:100f500004003e001087200010407800e04f500051
:100f6000efff32001087200010407800e04f500063
:100f700015003200118720000040eb008048780007
:100f80004084200010407800f54f500009003a00de
:100f90004e489000e04f5000030032000040eb004c
:100fa000404f98000a0037000040eb00504f980077
:100fb000070037000040eb00504f980010c0b3000e
:100fc000604f9800020037000040eb00504f98003f
:100fd0005e489000e04f5000c3ff3a006e4890001a
:100fe000e04f5000380032003e4890000080fb0087
:100ff000800047000040eb00b05898000040eb0034
:10100000204f98003e4890000080fb000000e80060
:10101000200798000c003700fb0047002e009000ce
:101020000080400010407800e04f50000300320084
:101030002e009000204f9800060037002e009000f0
:101040000000e800200798002e009000ef0f5000ed
:10105000f1ff36002e489000e04f5000180032009b
:101060002e489000105798000000eb00000f780009
:10107000010037001e0fe800300620009e007800b7
:10108000808f5000fbff36006f004700c10020003a
:101090000ffe07000000eb00000f78000100370092
:1010a0001e0fe800300620009e007800808f500060
:1010b000fbff36002e009000304f980002003700f2
:1010c00040c1b300304f98001087200010407800d6
:1010d000e04f50004fff3200118720000040eb002e
:1010e000804878002084200010407800f34f5000a2
:1010f00043013a004084200010407800e04f500047
:101100001f003a0020872000104078004184200012
:1011100080487800308720001040780051842000fb
:1011200080487800408720001040780061842000cb
:10113000804878005087200010407800718420009b
:10114000804878006087200010407800818420006b
:10115000804878007087200010407800918420003b
:101160008048780010842000104078000080fb0048
:1011700080007800008420000afe070026ff370068
:101180004084200010407800e14f50001a003a00df
:10119000508420001040780010cf98006084200018
:1011a0001040780020cf9800708420001040780014
:1011b00030cf9800808420001040780040cf980005
:1011c0000000eb00000f780007003700b00220009d
:1011d0000e0040001e00400010407800c20c0200cb
:1011e000000000001e0fe800900420009e00780020
:1011f000808f5000f5ff36004084200010407800ba
:10120000e24f500034003a0030c4b30000c79800e9
:1012100090c7b30010c7980030c6b30020c798002d
:10122000c0c6b30030c7980050c6b30040c798008e
:1012300030c7b30050c79800a0c3b30060c7980080
:1012400000c2b30010cf980000c2b30020cf9800b6
:1012500000c2b30030cf980000c3b30040cf980065
:10126000f0c2b30050cf98005084200010407800a6
:1012700060cf9800608420001040780070cf980004
:10128000708420001040780000d7980080842000ef
:101290001040780010d79800420c020000000000b7
:1012a0000000eb00000f780007003700b0022000bc
:1012b0000e0040001e00400010407800c20c0200ea
:1012c000000000001e0fe800600220009e00780071
:1012d000808f5000f5ff36004084200010407800d9
:1012e000e34f50001f003a00508420001040780067
:1012f00010f79800608420001040780020f79800d4
:10130000708420001040780030f79800808420001e
:101310001040780070f7980090842000104078000a
:1013200000ff9800420c0200000000000000eb00eb
:10133000000f780007003700b00220000e004000c8
:101340001e00400010407800c20c020000000000a7
:101350001e0fe800d00420009e007800808f50000f
:10136000f5ff36004084200010407800e44f500024
:1013700007003a005084200010407800e14f5000f0
:1013800002003a00e8c2a90001003700e8c2a80044
:101390004084200010407800e64f500007003a00db
:1013a0005084200010407800e14f500002003a00c5
:1013b000e922a90001003700e922a80040842000aa
:1013c00010407800e54f50008a003a0010c4b30086
:1013d00060df980050c7b30070df980040c7b300cb
:1013e00000e79800f0c6b30010e7980020c3b300f0
:1013f00050e798005084200010407800e14f5000e2
:1014000007003a0030c4b30020e7980010c4b300ce
:1014100030e7980060c4b30040e79800060037004a
:1014200030c5b30020e7980090c4b30030e79800bf
:1014300020c5b30040e798000000eb00000f7800e3
:1014400007003700b00220000e0040001e004000e0
:1014500010407800c20c0200000000001e0fe800df
:10146000900320009e007800808f5000f5ff36002a
:10147000420c020000000000608420001040780050
:10148000e14f500027003a0000c2b30070e7980017
:1014900040c5b30000ef9800f0c2b30010ef980011
:1014a00080c4b30020ef9800a0c3b30030ef9800d1
:1014b00000c2b30040ef980000c2b30050ef9800a4
:1014c00000c2b30060ef980000c2b30070ef980054
:1014d00000c2b30000f7980000c2b30010f79800f4
:1014e000d0c2b30020f79800d0c2b30030f7980004
:1014f000f0cdb30040f7980030c4b30050f7980027
:1015000000c2b30060f79800d0c2b30070f7980033
:10151000d0c2b30000ff980050c2b30010ff980083
:101520002600370000c2b30070e7980000c2b30085
:1015300000ef980000c2b30010ef980000c2b300a3
:1015400020ef980000c2b30030ef980000c2b30053
:1015500040ef980000c2b30050ef980000c2b30003
:1015600060ef980000c2b30070ef980000c2b300b3
:1015700000f7980000c2b30010f7980000c2b30053
:1015800020f7980000c2b30030f7980000c2b30003
:1015900040f7980000c2b30050f7980000c2b300b3
:1015a00060f7980000c2b30070f7980000c2b30063
:1015b00000ff980000c2b30010ff98000000eb008d
:1015c000000f780007003700b00220000e00400036
:1015d0001e00400010407800c20c02000000000015
:1015e0001e0fe800e00420009e007800808f50006d
:1015f000f5ff3600420c02000000000006fe370036
:101600002084200010407800f04f500001003a0084
:10161000e8e2a90010842000104078000080fb0060
:101620008000780000842000a9fc070020842000ae
:1016300010407800f24f50005a003a000000eb00d2
:1016400010079800030037001e0090000000e8001b
:10165000100798009e00900030062000808f5000f8
:10166000f9ff36000000eb00000f7800050037009e
:101670007b0047009e0040000040eb00804878005f
:101680001e0fe8001e007800ef0f5000f8ff360034
:1016900040c1b300304f98000000eb00000f78000d
:1016a000110037001e80e800000040000184200087
:1016b000e14078001e80e800000040000000e800e3
:1016c000028420006240780000c07000e04f5000ab
:1016d000040032007b0047009e00400010c0b300b1
:1016e000804878001e0fe8001e007800ef0f5000c1
:1016f000ecff36000040eb00204f98000000eb00ac
:10170000200798000c003700fb0047002e009000d7
:101710000080400010407800e04f5000030032008d
:101720002e009000204f9800060037002e009000f9
:101730000000e800200798002e009000ef0f5000f6
:10174000f1ff36002e489000105798000000eb0083
:10175000200798000b0037000000eb00000f780016
:10176000010037001e0fe800703e20009e00780048
:10177000808f5000fbff36002e0090000000e80034
:10178000200798002e009000e00f5000f2ff32007a
:101790006f004700c10020004dfc07002e4890005c
:1017a000304f98000000eb00504388009afd37004e
:0817b0000040da000000fe0019
:020000040000fa
:1017b8000000fa00f03f2000103088003030280088
:1017c80000308800100020006030880000352c00b0
:1017d800d0438800d04380007d000700200320000c
:1017e800d04388008003200040308800d043800028
:1017f8007700070000352c00d0438800d0438000d4
:101808007300070020032000d0438800c000200098
:1018180040308800d04380006d00070000352c0060
:10182800d0438800d043800069000700006420008e
:10183800d04388001000200040308800d04380004a
:101848006300070000352c00d0438800d043800097
:101858005f00070000642000d0438800600020007b
:1018680040308800d043800059000700330007004b
:10187800020007000080fa00000006000000fa00dd
:1018880000642000d04388000000eb00203088006e
:10189800200020004030880003003700d04380003b
:1018a8000000e900d0438800d0438000e00f5000da
:1018b800faff3a000080fa00000006000000fa0073
:1018c80000642000d04388000000eb00203088002e
:1018d800000820004030880003003700d043800013
:1018e8000000e900d0438800d0438000e00f50009a
:1018f800faff3a000080fa00000006000000fa0033
:1019080000642000d04388000000eb0020308800ed
:10191800000c20004030880003003700d0438000ce
:101928000000e900d0438800d0438000e00f500059
:10193800faff3a000080fa00000006000000fa00f2
:1019480000642000d04388000000eb0020308800ad
:10195800100020004030880003003700d04380008a
:101968000000e900d0438800d0438000e00f500019
:10197800faff3a000080fa00000006000200fa00b0
:10198800004f780020032000d0438800100020007a
:10199800203088001e00fb0040308800030037001c
:1019a800d04380000000e900d0438800d043800085
:1019b800e00f5000faff3a000000000000000000ad
:1019c80000000000000000000080fa00000006008f
:1019d8000200fa00000f7800010037001e0fe9002e
:1019e8001e007800e00f5000fcff3a000080fa006b
:0419f80000000600e5
:020000040000fa
:1019fc007a080000020000000000000072080000dd
:101a0c000800000002000000433130003130330088
:101a1c000000000000080000720000000000000040
:041a2c0000000000b6
:020000040000fa
:020000040002f8
:04aff800bdfa00009e
:020000040000fa
:020000040002f8
:04affc007f3f000093
:00000001FF
