:020000040000FA
:0600000007EF0AF01200F8
:020006001200E6
:060008003AEF08F01200BF
:02000E001200DE
:080010000050313032303200A3
:06001800EFEF08F01200FA
:02001E000200DE
:100020002A140000170F000002000000100000005A
:080030000A0F000008000000A7
:08003800D9CFE6FFDACFE6FFA5
:10004000E1CFD9FFE2CFDAFFE652E652E652E652BE
:10005000848CDE6ADD6ADECF10F0DDCF11F0D8903F
:10006000115004E62C0E105C010E115805E2DF2A37
:10007000010EF1E3DB2AEFD7020EDB6A030EDB6A27
:10008000020EDBCF10F0030EDBCF11F0D890115031
:1000900004E60C0E105C000E11582CE2020EDBCFB1
:1000A00010F0030EDBCF11F0FC0EDB501024E96ED4
:1000B000FD0EDB501120EA6EEF50E66ECAEC09F03F
:1000C000E552DE6ADD6ADECF10F0DDCF11F0D890A8
:1000D000115004E62C0E105C010E115805E2DF2AC7
:1000E000010EF1E3DB2AEFD7020EDB2A030EC8E391
:1000F000DB2AC6D7849CDE6ADD6ADECF10F0DDCF56
:1001000011F0D890115004E6C80E105C000E115882
:1001100005E2DF2A010EF1E3DB2AEFD7040EE15CF2
:1001200002E2E16AE552E16EE552E5CFDAFFE7CFA0
:10013000D9FF1200D9CFE6FFDACFE6FFE1CFD9FF32
:10014000E2CFDAFF0C0EE12402E3E168E652E16E51
:100150000001110EAC6F010EF36E040EF3CFDBFF46
:10016000050EDB6A03EC00F028EC05F01DEC05F051
:1001700049EC05F056EC05F0F29CF29E9CEC05F083
:100180000F010A51FDE00A6B000170517F0A02E184
:10019000F7EF04F0010A01E117D24C0A01E1F9D1AD
:1001A000030A01E1E8D1010A01E1D7D11F0A01E107
:1001B000BCD1010A01E1A6D1030A01E19CD1070AE1
:1001C00001E192D10D0A01E189D1010A01E180D159
:1001D000030A01E172D1010A01E166D1070A01E1D6
:1001E0005DD1010A01E151D1020A01E14CD13F0A7E
:1001F00001E13ED1020A01E137D1010A01E12BD12F
:10020000070A01E11AD1010A01E110D1030A01E153
:10021000FFD0010A01E1F5D00F0A01E1E9D0010A9E
:1002200001E1DFD0030A01E1D5D0010A01E1CED01E
:10023000070A01E1C9D0010A01E1C4D0030A01E1C2
:10024000BAD0010A01E1B5D01F0A01E1ABD0010A21
:1002500001E1A6D0030A01E1A1D0010A01E19CD08D
:10026000070A01E197D0010A01E192D0030A01E1F6
:1002700086D0010A01E178D00F0A60E0010A52E05D
:10028000030A43E0010A35E0070A28E0010A1AE000
:10029000030A0CE0010A01E0B6D3E66AEAEC05F0D5
:1002A000E552010EE66EEAEC05F06DD1030EE66E46
:1002B00007EC07F0E552030EE66E4CEC07F0E55252
:1002C000030E47D0040EE66E07EC07F0E552040E6D
:1002D000E66E4CEC07F0E552040E3BD0E66ABDEC4E
:1002E00005F0E552010EE66EBDEC05F0E552020E9A
:1002F00084D0010EE66E07EC07F0E552010EE66EC3
:100300004CEC07F0E552010E0BD0020EE66E07EC46
:1003100007F0E552020EE66E4CEC07F0E552020ED5
:10032000E66E40D1060EE66E07EC07F0E552060ECB
:10033000E66E4CEC07F0E552060E0BD0050EE66EAD
:1003400007EC07F0E552050EE66E4CEC07F0E552BF
:10035000050EE66E91EC07F0E552E66AB3EC06F0A6
:10036000E552010EE66EF1D0E66A1AEC06F0E552AF
:10037000010EE66E1AEC06F0E552020E71D0E66A46
:1003800053EC06F0E552010EE66E53EC06F0EDD0AC
:10039000E66AFCD0030E10D0040E0ED0E66A2ED012
:1003A000010E01D0020EE66E07EC07F0E552E66A98
:1003B00007D1060E01D0050EE66E07EC07F0E552F8
:1003C000E66AC8D0E66A4DD0E66AD2D0E66AEAECC0
:1003D00005F087D0030EE66E07EC07F0E552030E3A
:1003E00032D0040EE66E07EC07F0E552040E2BD077
:1003F000E66ABDEC05F0E552010EE66EBDEC05F0D7
:10040000E1D0010EE66E07EC07F0E552010E06D0D2
:10041000020EE66E07EC07F0E552020EE66E4CECBB
:1004200007F0E552E66A8CEC06F02AD0060EE66E7E
:1004300007EC07F0E552060E06D0050EE66E07EC57
:1004400007F0E552050EE66E4CEC07F0E552E66A61
:10045000B3EC06F03AD0E66A1AEC06F0E552010E6B
:10046000E66E1AEC06F0AED0E66A53EC06F033D036
:10047000E66AEAEC05F0E552010EE66E4CEC07F098
:10048000E552010E9CD0040E10D0010EE66E07EC72
:1004900007F0E552E66A8CEC06F023D0E66AEAEC57
:1004A00005F0E552040E0ED0060EE66E07EC07F0DE
:1004B000E552E66AB3EC06F014D0E66AEAEC05F021
:1004C000E552060EE66E4CEC07F0E552010E41D007
:1004D000E66AEAEC05F0E552010E49D0E66A53EC13
:1004E00006F0E552010E51D0040EE66E07EC07F05F
:1004F000E552040E0DD0040EE66E07EC07F0E5524F
:10050000040E19D0060EE66E07EC07F0E552060E53
:10051000E66E4CEC07F0E552E66AB3EC06F0E55205
:10052000010EE66EB3EC06F02ED0060EE66E07EC7A
:1005300007F0E552060EE66E91EC07F0E552010E6B
:10054000E66EEAEC05F0E552E66AB3EC06F0E55239
:10055000020EE66EB3EC06F035D0E66A53EC06F018
:10056000E552010EE66EEAEC05F0E552020EE66E8B
:1005700053EC06F027D0E66A53EC06F0E552010E84
:10058000E66E53EC06F0E552020EE66EEAEC05F07C
:1005900019D0E66A07EC07F0E552E66A4CEC07F082
:1005A000E552E66A91EC07F0E552E66A8CEC06F05B
:1005B000E552010EE66E8CEC06F0E552020EE66E98
:1005C0008CEC06F0E5521FD2715100080CE271511B
:1005D000E66ED950040FE96E000EDA20EA6EE5529D
:1005E000E750EE6EED6AD9500A0F106E000EDA2059
:1005F000116E060E10C0DBFF070E11C0DBFF0A0EE6
:10060000DB6A0B0EDB6AE66AD6EC07F0E552020EF7
:10061000DB6A030EDB6A020EDBCF10F0030EDBCFCA
:1006200011F0E80E105C030E115806E2020EDB2AF0
:10063000030EF1E3DB2AEFD7DE6ADD6ADECF10F0CE
:10064000DDCF11F0040EDBCF12F0050EDBCF13F07F
:100650001250105C135011583BE20001AD5102E101
:10066000C26A02D0040EC26E030EC212C2B2FED71C
:10067000080EC3CFDBFF090EC4CFDBFF080EDBCFB4
:1006800010F0090EDBCF11F0D9500A0FE96E000E01
:10069000DA20EA6E1050EE261150ED22020EDB6ACF
:1006A000030EDB6A020EDBCF10F0030EDBCF11F07E
:1006B0000A0E105C000E115806E2020EDB2A030E31
:1006C000F1E3DB2AEFD7DF2A010EB8E3DB2AB6D746
:1006D000040EDBCF10F0050EDBCF11F0D9500A0F5E
:1006E000E96E000EDA20EA6E10C00BF011C00CF0BB
:1006F000EECF06F0EDCF07F0E1EC09F006C0EEFF1B
:1007000007C0EDFF010EE76E060EDBCFE9FF070E17
:10071000DBCFEAFFE750E926000EEA22EFCF64F0D4
:10072000060EDBCFE9FF070EDBCFEAFFEFCF65F068
:10073000020EDB6A030EDB6A020EDBCF10F0030E43
:10074000DBCF11F0D00E105C070E115806E2020E3E
:10075000DB2A030EF1E3DB2AEFD70A0EDB6A0B0E6E
:10076000DB6A010EE66ED6EC07F0E552020EDB6A9C
:10077000030EDB6A020EDBCF10F0030EDBCF11F0AD
:10078000E80E105C030E115806E2020EDB2A030E7F
:10079000F1E3DB2AEFD7DE6ADD6ADECF10F0DDCFD2
:1007A00011F0040EDBCF12F0050EDBCF13F0125068
:1007B000105C135011583BE20001AE5102E1080EEB
:1007C00001D00C0EC26E030EC212C2B2FED7080ECA
:1007D000C3CFDBFF090EC4CFDBFF080EDBCF10F069
:1007E000090EDBCF11F0D9500A0FE96E000EDA20A6
:1007F000EA6E1050EE261150ED22020EDB6A030E57
:10080000DB6A020EDBCF10F0030EDBCF11F00A0E15
:10081000105C000E115806E2020EDB2A030EF1E313
:10082000DB2AEFD7DF2A010EB8E3DB2AB6D7040EA6
:10083000DBCF10F0050EDBCF11F0D9500A0FE96EB7
:10084000000EDA20EA6E10C00BF011C00CF0EECFF3
:1008500006F0EDCF07F0E1EC09F006C0EEFF07C0AF
:10086000EDFF010EE76E060EDBCFE9FF070EDBCFD3
:10087000EAFFE750E926000EEA22EFCF66F0060E07
:10088000DBCFE9FF070EDBCFEAFFEFCF67F0020E09
:10089000DB6A030EDB6A020EDBCF10F0030EDBCF48
:1008A00011F0D00E105C070E115806E2020EDB2A82
:1008B000030EF1E3DB2AEFD70A0EDB6A0B0EDB6ACD
:1008C000020EE66ED6EC07F0E552020EDB6A030E6E
:1008D000DB6A020EDBCF10F0030EDBCF11F0E80E67
:1008E000105C030E115806E2020EDB2A030EF1E340
:1008F000DB2AEFD7DE6ADD6ADECF10F0DDCF11F044
:10090000040EDBCF12F0050EDBCF13F01250105C9B
:10091000135011583BE20001AF5102E1100E01D01B
:100920001C0EC26E030EC212C2B2FED7080EC3CF97
:10093000DBFF090EC4CFDBFF080EDBCF10F0090E82
:10094000DBCF11F0D9500A0FE96E000EDA20EA6E03
:100950001050EE261150ED22020EDB6A030EDB6A08
:10096000020EDBCF10F0030EDBCF11F00A0E105C8D
:10097000000E115806E2020EDB2A030EF1E3DB2A19
:10098000EFD7DF2A010EB8E3DB2AB6D7040EDBCFA0
:1009900010F0050EDBCF11F0D9500A0FE96E000EF2
:1009A000DA20EA6E10C00BF011C00CF0EECF06F0AA
:1009B000EDCF07F0E1EC09F006C0EEFF07C0EDFF58
:1009C000010EE76E060EDBCFE9FF070EDBCFEAFF75
:1009D000E750E926000EEA22EFCF68F0060EDBCFE3
:1009E000E9FF070EDBCFEAFFEFCF69F00CD00BCFAA
:1009F00064F00CCF65F00DCF66F00ECF67F00FCF2F
:100A000068F010CF69F07E0E0001705D0CE00BCF36
:100A100064F00CCF65F00DCF66F00ECF67F00FCF0E
:100A200068F010CF69F0600EE66E000EE66E1CEC0A
:0A0A300000F0E552E552C0EF00F0BF
:060A3A00C26AB80EC16E95
:100A40009290929292949296929A9794C280120067
:100A50008068926A200E816EC00E936E0F0E826EB9
:100A6000900E946E200E836EC00E956E200E846ED6
:100A7000966AE40E856EC0880C0EC26EC0981D0E7C
:100A8000976E0001010EAD6F0001AE6F0001AF6FF8
:100A90001200D76AD66AD596D584D582D580D59AE4
:100AA0005F0EE66EAEEC09F0E5521200D9CFE6FF1C
:100AB000DACFE6FFE1CFD9FFE2CFDAFFE6523F0E11
:100AC000C716C66AC680C79CC69894969488949A9E
:100AD000C68A859AC950DF6E180EC96EC7A0FED7A8
:100AE000C950DF6E020EC96EC7A0FED7858A859CED
:100AF000C950DF6E180EC96EC7A0FED7C950DF6E91
:100B0000020EC96EC7A0FED7858C859EC950DF6EC8
:100B1000180EC96EC7A0FED7C950DF6E020EC96E8F
:100B2000C7A0FED7858E9D969E96E552E552E5CFED
:100B3000DAFFE7CFD9FF12000001020E606F0C0E42
:100B4000616F640E626FACC063F03C0E646F656FE2
:100B5000666F676F686F696F6A6B030E6B6F400E2D
:100B6000E66EE66A7C0EE66E4DEC09F0E552E55263
:100B7000E552D08E9F8AF28E1200D9CFE6FFDACFEF
:100B8000E6FFE1CFD9FFE2CFDAFFFD0EDB50020A2C
:100B900014E0030A0AE0010A17E1818A0001010E4C
:100BA000AD6F0F01070E126F0FD0838A0001010E87
:100BB000AE6F0F01070E136F07D0848A0001010E7C
:100BC000AF6F0F01070E146FE552E5CFDAFFE7CFE5
:100BD000D9FF1200D9CFE6FFDACFE6FFE1CFD9FF88
:100BE000E2CFDAFFFD0EDB50020A16E0030A0BE04B
:100BF000010A1AE1818A819481968198819A000183
:100C0000010EAD6F11D0838A839483968398839A63
:100C10000001010EAE6F08D0848A84948496849873
:100C2000849A0001010EAF6FE552E5CFDAFFE7CFFE
:100C3000D9FF1200D9CFE6FFDACFE6FFE1CFD9FF27
:100C4000E2CFDAFFFD0EDB50020A1CE0030A0EE0E1
:100C5000010A23E1818A819481968188819A000129
:100C6000010EAD6F0F01070E126F17D0838A8394A8
:100C700083968388839A0001010EAE6F0F01070EE1
:100C8000136F0BD0848A849484968488849A00019C
:100C9000010EAF6F0F01070E146FE552E5CFDAFFBB
:100CA000E7CFD9FF1200D9CFE6FFDACFE6FFE1CFD9
:100CB000D9FFE2CFDAFFFD0EDB50020A1CE0030A87
:100CC0000EE0010A23E1818A819481868188819ADC
:100CD0000001010EAD6F0F01070E126F17D0838A4E
:100CE000839483868388839A0001010EAE6F0F017F
:100CF000070E136F0BD0848A849484868488849A28
:100D00000001010EAF6F0F01070E146FE552E5CF22
:100D1000DAFFE7CFD9FF1200D9CFE6FFDACFE6FF3F
:100D2000E1CFD9FFE2CFDAFFFD0EDB50020A10E07F
:100D3000030A08E0010A11E1818A81868198819A7B
:100D400081940BD0838A83868398839A839405D079
:100D5000848A84868498849A8494E552E5CFDAFF65
:100D6000E7CFD9FF1200D9CFE6FFDACFE6FFE1CF18
:100D7000D9FFE2CFDAFFFD0EDB50020A10E0030AD2
:100D800008E0010A11E1818A81868198819A818433
:100D90000BD0838A83868398839A838405D0848A40
:100DA00084868498849A8484E552E5CFDAFFE7CF7D
:100DB000D9FF1200D9CFE6FFDACFE6FFE1CFD9FFA6
:100DC000E2CFDAFFE652C950DF6EFD0EDBCF11F045
:100DD00011C010F0040E1110C96EC7A0FED7C95083
:100DE000DF6EFF0EE76EFC0EDBCF10F0FD0EDBCFEB
:100DF00011F0E7501016116A1050C96EC7A0FED747
:100E0000E552E552E5CFDAFFE7CFD9FF1200D9CF9F
:100E1000E6FFDACFE6FFE1CFD9FFE2CFDAFFE65215
:100E2000E652FD0EDBCF12FFDB50060A28E0030A74
:100E300021E0010A1DE0070A19E0010A0AE0030A9D
:100E400005E0010A21E1520EDE6E01D0DE68010EDE
:100E500002D0DE68030EDD6E859ADECFE6FFDDCFC1
:100E6000E6FFA8DFE552E552858A0BD0819003D0DA
:100E7000819006D0818081820001AD6B05D0818098
:100E800081920001010EAD6FE552E552E552E5CFCA
:100E9000DAFFE7CFD9FF1200D9CFE6FFDACFE6FFBE
:100EA000E1CFD9FFE2CFDAFFE652E652FD0EDBCF0B
:100EB00013FFDB50060A28E0030A21E0010A1DE0C7
:100EC000070A19E0010A0AE0030A05E0010A21E124
:100ED000520EDE6E01D0DE68010E02D0DE68030E17
:100EE000DD6E859CDECFE6FFDDCFE6FF63DFE552FA
:100EF000E552858C0BD0839003D0839006D08380FD
:100F000083820001AE6B05D0838083920001010EC5
:100F1000AE6FE552E552E552E5CFDAFFE7CFD9FFF4
:100F20001200D9CFE6FFDACFE6FFE1CFD9FFE2CF5B
:100F3000DAFFE652E652FD0EDBCF14FFDB50060A65
:100F400028E0030A21E0010A1DE0070A19E0010A6E
:100F50000AE0030A05E0010A21E1520EDE6E01D02B
:100F6000DE68010E02D0DE68030EDD6E859EDECFE8
:100F7000E6FFDDCFE6FF1EDFE552E552858E0BD0A2
:100F8000849003D0849006D0848084820001AF6B6B
:100F900005D0848084920001010EAF6FE552E552C6
:100FA000E552E5CFDAFFE7CFD9FF1200D9CFE6FF50
:100FB000DACFE6FFE1CFD9FFE2CFDAFFE652929037
:100FC000929292949296929A9794FD0EDB50020A16
:100FD0001CE0030A0EE0010A23E112CFDFFF030E3B
:100FE000DF5C03E0050EDF5C02E1928019D09282A3
:100FF00017D013CFDFFF030EDF5C03E0050EDF5CCD
:1010000002E192840DD092860BD014CFDFFF030E45
:10101000DF5C03E0050EDF5C02E1928A01D0978479
:10102000DF50070A1CE0020A15E0030A13E0050A74
:101030000DE0070A0BE0060A06E0020A02E0010AD8
:101040000EE1828001D08290828202D082808292E0
:10105000828403D0828082828294848E04D08280B3
:1010600082828284849EE552E552E5CFDAFFE7CFA3
:04107000D9FF120092
:0C107400E9CFE4FFEACFE4FFF6CFE4FF91
:10108000F7CFE4FFF8CFE4FFF5CFE4FFF3CFE4FFC1
:10109000F4CFE4FFFACFE4FFFBCFE4FF00EE00F073
:1010A000100EE80403E3EECFE4FFFBD700EE10F0F0
:1010B000040EE80403E3EECFE4FFFBD7E6529EB64E
:1010C0009E969EAA66D08FEC09F0E66E6C0E0F011C
:1010D0001725E96E000E1821EA6EE552E750EF6E13
:1010E0000B0E171901E1185118E0010E171901E153
:1010F00018510AE0175137E1185135E1020E00018D
:101100006C5D34E10F012FD0172B000E1823000166
:101110006D510F01156F166B29D0172B000E182378
:101120000F0115510F01171921E10F0116510F0180
:1011300018191CE117CFE9FF18CFEAFFE906000EE6
:10114000EA5A6C0EE926000EEA22EF5003080EE17F
:10115000176B186B0001AC5100016E5D07E10F01C8
:10116000010E0A6F03D0172B000E18230F01020E79
:10117000D8801755000E18550BE20F0115510F01BD
:10118000175D0F0116510F01185902E3176B186B09
:101190009E9AE55200EE13F0040EE80403E3E5CF57
:1011A000EDFFFBD700EE0FF0100EE80403E3E5CFF0
:1011B000EDFFFBD7E5CFFBFFE5CFFAFFE5CFF4FF6F
:1011C000E5CFF3FFE5CFF5FFE5CFF8FFE5CFF7FF7C
:1011D000E5CFF6FFE5CFEAFFE5CFE9FF1100D8CF75
:1011E000E4FFE0CFE4FFE46EE652F2B4F294E5529D
:0C11F000E550E5CFE0FFE5CFD8FF100090
:0411FC001E0EF66E5F
:10120000000EF76E000EF86E0F010900F550056F25
:101210000900F550066F03E1056701D03DD00900D4
:10122000F550006F0900F550016F0900F550026F8D
:1012300009000900F550E96E0900F550EA6E090051
:1012400009000900F550036F0900F550046F09000B
:101250000900F6CF07FFF7CF08FFF8CF09FF00CF4F
:10126000F6FF01CFF7FF02CFF8FF0F01035302E1B2
:10127000045307E00900F550EE6E0307F8E2040797
:10128000F9D707CFF6FF08CFF7FF09CFF8FF0F0117
:0A1290000507000E065BBFD7120031
:06129A00D9CFE6FFDACF18
:1012A000E6FFE1CFD9FFE2CFDAFFAD6AAC6AFD0E0F
:1012B000DBB0AD88DBA202D0AD8CAC8CDBB4AD8EE4
:1012C000DBA602D0AC8801D0AC8ADBB8AD84DBBA37
:1012D000AC86DBAC02D09D8A01D09D9ADBAE02D0F9
:1012E0009D8801D09D98FB0EDB50B06EFC0EDBCFCD
:1012F00011F011C010F0116A10507F6EAD8AAC8EE3
:10130000949C948EAD50100B04E0AD50800B01E125
:0E131000948CE552E5CFDAFFE7CFD9FF12004B
:02131E00D9CF25
:10132000E6FFDACFE6FFE1CFD9FFE2CFDAFFE65200
:10133000F20E0F011917ACAC03D01991ACB01981A2
:10134000ACB41985ACB21987AF50DF6EDF50E552EF
:0C135000E552E5CFDAFFE7CFD9FF12002D
:04135C00D9CFE6FF00
:10136000DACFE6FFE1CFD9FFE2CFDAFFFD0EDB50A7
:101370007F0BD56ED76AD66AF294FD0EDBAE02D033
:10138000F28A01D0F29AD58EE552E5CFDAFFE7CFA7
:04139000D9FF12006F
:0C139400D9CFE6FFDACFE6FFE1CFD9FFAA
:1013A000E2CFDAFFADAC04D0AD900F0119B3AD8040
:1013B000FD0EDB50AE6EE552E5CFDAFFE7CFD9FF89
:0213C000120019
:0E13C200036A026A100EE76ED89006360736F0
:1013D000023603360B50025C0C50035805E30B50E9
:0E13E000025E0C50035A062AE72EF0D71200C8
:0213EE00400EAF
:1013F000F36E00EE00F00F0E01D81200EA6002D08A
:0E140000EE6AFCD7F350E9601200EE6AFCD7EA
:02140E001EEED0
:1014100000F02EEE00F0F86A0F9CFEEC08F007ECEE
:0A14200000F09AEC00F0FBD7120078
:02142A000000C0
:020000040001F9
:01FFF800A662
:01FFF900F611
:01FFFA000402
:01FFFB00FF06
:01FFFD00F90A
:00000001FF
