:020000040000FA
:06000000FCEF09F0120004
:020006001200E6
:06000800AEEF07F012004C
:02000E000000F0
:070010004D313031303200A8
:06001800C5EF08F0120024
:02001E000200DE
:100020001414000015010000020000000E00000082
:080030000A01000009000000B4
:080038000001606B900EFC6FEB
:10004000010EFD6F9D969E96E66A030EE66E010E0A
:10005000E66E68EC09F0E552E552E5529380939222
:100060009394929689968A989398899A929A899865
:1000700092988A9A939A8D9096909682968494807C
:10008000948294848250040B01E0010E100DF3CF92
:1000900003F08250020B01E0010E080DF3CF02F0D5
:1000A0008250010B040DF3CF01F08450040B01E0EA
:1000B000010EE824006E8450020B01E0010E0024C2
:1000C0000124022403240001FE6F8184D76AD66ACA
:1000D000D596D584D582D580D59A5F0EE66EB9ECDB
:1000E00009F0E5529F8AF29CF29E1200D9CFE6FFFA
:1000F000DACFE6FFE1CFD9FFE2CFDAFFE652C9500F
:10010000DF6E9E96C96A9EA6FED7C950E552E5529B
:10011000E5CFDAFFE7CFD9FF1200D9CFE6FFDACF7C
:10012000E6FFE1CFD9FFE2CFDAFFE150FC0FE96E45
:10013000FF0EE220EA6E030EEC02F3CFEDFFEF02BA
:10014000F3CFEEFFF450ED26D1DFE66EFC0EDBCFF1
:10015000E9FFFD0EDBCFEAFFAA0EE926000EEA2238
:10016000E552E750EF6EC2DFE66E010EE76EFC0E61
:10017000DBCFE9FFFD0EDBCFEAFFE750E926000EFB
:10018000EA22AA0EE926000EEA22E552E750EF6EB7
:10019000ADDFE66E020EE76EFC0EDBCFE9FFFD0E73
:1001A000DBCFEAFFE750E926000EEA22AA0EE92695
:1001B000000EEA22E552E750EF6EE552E5CFDAFF96
:1001C000E7CFD9FF1200D9CFE6FFDACFE6FFE1CFC4
:1001D000D9FFE2CFDAFFE652E6520001010E616F6D
:1001E000615139E0F2A40CD0FC07000EFD5BFC511C
:1001F000FD1105E1900EFC6F010EFD6F606FF29432
:100200006051EEE09D9A8194DE6ADD6ADECF00F0F7
:10021000DDCF01F0050E005C000E015805E2DF2A7B
:10022000010EF4E3DB2AF2D78150010B006E016A64
:10023000E85001100BE1FC0EDBCFE6FFFD0EDBCF3B
:10024000E6FF6BDFE552E5520001616B81849D8A18
:100250000001606BC5D7E552E552E552E5CFDAFF04
:10026000E7CFD9FF1200D9CFE6FFDACFE6FFE1CF23
:10027000D9FFE2CFDAFFFC0EDB50010B02E08A88E7
:1002800001D08A98FC0EDB50020B02E0898A01D073
:10029000899AFC0EDB50040B02E0898801D0899812
:1002A000FC0EDBCF00F0FD0EDBCF01F0080E005C92
:1002B000000E015803E28A8A8D9002D08A9A8D80BE
:1002C000E552E5CFDAFFE7CFD9FF1200D9CFE6FF3D
:1002D000DACFE6FFE1CFD9FFE2CFDAFFE652E6520E
:1002E000E652E652020EDB6E030EDB6AFC0EDBCF3B
:1002F00000F0FD0EDBCF01F0010E005C000E015896
:1003000008E2010EF36E020EF3CFDBFF030EDB6A91
:1003100023D0010EDE6EDD6ADECF00F0DDCF01F00E
:10032000FC0EDBCF02F0FD0EDBCF03F00250005CD1
:100330000350015811E2D950020FE96E000EDA2085
:10034000EA6E010ED890EE36ED36E806FBE1DF2AC4
:10035000010EE2E3DB2AE0D7020EDBCF00F0030E52
:10036000DBCF01F000C0F3FF01C0F4FF040EE15C3D
:1003700002E2E16AE552E16EE552E5CFDAFFE7CF4E
:10038000D9FF1200D9CFE6FFDACFE6FFE1CFD9FFE0
:10039000E2CFDAFFE652010EDF6EFC0EDBCFE6FFA6
:1003A000FD0EDBCFE6FF5FDFE552E552FC0EDBCF53
:1003B000E6FFFD0EDBCFE6FF06DFE552E552DF503C
:1003C000E552E552E5CFDAFFE7CFD9FF1200D9CFEA
:1003D000E6FFDACFE6FFE1CFD9FFE2CFDAFF100E7A
:1003E000E12402E3E168E652E16E8986020EF36ED3
:1003F000040EF3CFDBFF360EF36E050EF3CFDBFFFB
:10040000640EF36E060EF3CFDBFF070EFEC0DBFFBC
:100410000C0EDB6A030EF36E0D0EF3CFDBFFDE6A0C
:10042000DD6ADECF00F0DDCF01F0D890015004E6A8
:10043000140E005C000E015805E2DF2A010EF1E304
:10044000DB2AEFD7020EDB6A030EDB6A020EDBCF7C
:1004500000F0030EDBCF01F0D890015004E6040E4B
:10046000005C000E01582CE2D950040F006E000E03
:10047000DA20016E020EDB500024E96E030EDB5021
:100480000120EA6EEF50E66ED5EC09F0E552DE6A27
:10049000DD6ADECF00F0DDCF01F0D890015004E638
:1004A000140E005C000E015805E2DF2A010EF1E394
:1004B000DB2AEFD7020EDB2A030EC8E3DB2AC6D7FE
:1004C000020EDB6A030EDB6A020EDBCF00F0030EC6
:1004D000DBCF01F0D890015004E6300E005C000E36
:1004E00001582CE2020EDBCF00F0030EDBCF01F04F
:1004F000FC0EDB500024E96EFD0EDB500120EA6E9D
:10050000EF50E66ED5EC09F0E552DE6ADD6ADECF2B
:1005100000F0DDCF01F0D890015004E6140E005C2D
:10052000000E015805E2DF2A010EF1E3DB2AEFD7C6
:10053000020EDB2A030EC8E3DB2AC6D7080EF36ED1
:10054000020EF3CFDBFF030EDB6A020EDBCF00F0FF
:10055000030EDBCF01F0D890015004E60A0E005CD8
:10056000000E01582CE2D950040F006E000EDA2064
:10057000016E020EDB500024E96E030EDB500120F9
:10058000EA6EEF50E66ED5EC09F0E552DE6ADD6A00
:10059000DECF00F0DDCF01F0D890015004E6140E5C
:1005A000005C000E015805E2DF2A010EF1E3DB2AB0
:1005B000EFD7020EDB2A030EC8E3DB2AC6D7DE6ABA
:1005C000DD6ADECF00F0DDCF01F0D890015004E607
:1005D000140E005C000E015805E2DF2A010EF1E363
:1005E000DB2AEFD78996DE6ADD6ADECF00F0DDCF49
:1005F00001F0D890015004E6C80E005C000E0158CE
:1006000005E2DF2A010EF1E3DB2AEFD7100EE15CF1
:1006100002E2E16AE552E16EE552E5CFDAFFE7CFAB
:10062000D9FF1200D9CFE6FFDACFE6FFE1CFD9FF3D
:10063000E2CFDAFFE652E652E652E6528986DE6AF9
:10064000DD6ADECF00F0DDCF01F0D890015004E686
:10065000140E005C000E015805E2DF2A010EF1E3E2
:10066000DB2AEFD7020EDB6A030EDB6A020EDBCF5A
:1006700000F0030EDBCF01F0D890015004E60C0E21
:10068000005C000E01582CE2020EDBCF00F0030EDE
:10069000DBCF01F0FC0EDB500024E96EFD0EDB50D9
:1006A0000120EA6EEF50E66ED5EC09F0E552DE6A05
:1006B000DD6ADECF00F0DDCF01F0D890015004E616
:1006C000140E005C000E015805E2DF2A010EF1E372
:1006D000DB2AEFD7020EDB2A030EC8E3DB2AC6D7DC
:1006E000DE6ADD6ADECF00F0DDCF01F0D890015088
:1006F00004E6140E005C000E015805E2DF2A010E2C
:10070000F1E3DB2AEFD78996DE6ADD6ADECF00F0FF
:10071000DDCF01F0D890015004E6C80E005C000E59
:10072000015805E2DF2A010EF1E3DB2AEFD7040EC0
:10073000E15C02E2E16AE552E16EE552E5CFDAFF03
:10074000E7CFD9FF1200D9CFE6FFDACFE6FFE1CF3E
:10075000D9FFE2CFDAFF200EE12402E3E168E6529E
:10076000E16E0A0EDB6A0B0EDB6A0F0EC11264DC4F
:10077000190EE66EE66A7C0EE66E23EC09F0E55291
:10078000E552E552080EB86ED08E9F8AF28E0101B6
:100790000B5129E00B6B7F0E0001725D1DE1020E13
:1007A000626F0C0E636F640E646FFEC065F00CC167
:1007B00066F00DC167F00EC168F00FC169F010C19D
:1007C0006AF011C16BF06C6B030E6D6F620EE66E1A
:1007D000000EE66E27DF05D0AA0EE66E000EE66E6E
:1007E000F6DDE552E55201010A51D1E00A6B000144
:1007F000FA5106E0010EF36E0A0EF3CFDBFF02D0D2
:100800000A0EDB6A0B0EDB6A020EDB6A030EDB6A82
:10081000020EDBCF00F0030EDBCF01F0300E005CE8
:10082000000E015811E2020EDBCFE9FF030EDBCF11
:10083000EAFFAA0EE926000EEA22EF68020EDB2A82
:10084000030EE6E3DB2AE4D7060EDB6A070EDB6A5B
:10085000060EDBCF00F0070EDBCF01F0100E005CC0
:10086000000E015801E376D0060EDBCF00F0070E34
:10087000DBCF01F0080E005C000E015827E20001FA
:10088000FE51E824EA6ADA0FE96E000EEA22EF5020
:10089000026E036AE66E03C0E6FF060EDBCFE6FFDC
:1008A000070EDBCFE6FF12DDE552E552E552E7CF5A
:1008B00003F0E552E7CF02F00250F314006E03504C
:1008C000F414016E005001103EE02FD00001FE51E3
:1008D000E824010FEA6ADA0FE96E000EEA22EF500F
:1008E000026E036AE66E03C0E6FF060EDBCF04F07D
:1008F000070EDBCF05F0080E045E000E055A04C09B
:10090000E6FF05C0E6FFE2DCE552E552E552E7CF3F
:1009100003F0E552E7CF02F00250F314006E0350EB
:10092000F414016E005001100EE0000EE66EE66A4F
:10093000060EDBCFE6FF070EDBCFE6FF23DDE55239
:10094000E552E552E552060EDB2A070E01E280D79A
:10095000DB2A7ED7D9500A0FE96E000EDA20EA6E44
:10096000EE50ED1001E113D7080EDB6A090EDB6AC9
:100970000C0EDB6A0D0EDB6A0E0EDB6A0F0EDB6AF5
:10098000100EDB6A110EDB6A120EDB6A130EDB6AD5
:100990000001FE51E824EA6ADA0FE96E000EEA224D
:1009A000EF50026E036AE66E03C0E6FF000EE66ECD
:1009B000E66A8CDCE552E552E552E7CF03F0E552FA
:1009C000E7CF02F00250F314006E0350F414016EEE
:1009D000005001106DE0140EACC0DBFF150EDB6A99
:1009E000160EDB6A170EDB6A016A026A02C003F0A8
:1009F00001C002F0006A180E00C0DBFF190EABC088
:100A0000DBFF1A0E01C0DBFF1B0E03C0DBFFAAC019
:100A100000F0016A026A036A100ED89000360136AF
:100A200002360336E806F9E11C0E00C0DBFF1D0E9E
:100A300001C0DBFF1E0E02C0DBFF1F0E03C0DBFF89
:100A4000180EDBCF04F0190EDBCF05F01A0EDBCF4A
:100A500006F01B0EDBCF07F0D950140FE96E000E25
:100A6000DA20EA6EEE500426EE500522EE50062201
:100A7000EE500722D9501C0FE96E000EDA20EA6E04
:100A80000450EE24006E0550EE20016E0650EE205C
:100A9000026E0750EE20036E0C0E00C0DBFF0D0E41
:100AA00001C0DBFF0E0E02C0DBFF0F0E03C0DBFF39
:100AB000010EF36E020EF3CFDBFF030EDB6A020EB4
:100AC000DBCF00F0030EDBCF01F0100E005C000E58
:100AD000015801E338D2020EDBCFDEFFDBCFDDFFB2
:100AE000DBCF00F0030EDBCF01F0080E005C000E40
:100AF000015801E3FFD00001FE51E824EA6ADA0F51
:100B0000E96E000EEA22EF50026E036AE66E03C041
:100B1000E6FF020EDBCFE6FF030EDBCFE6FF66EC5F
:100B200001F0E552E552E552E7CF03F0E552E7CF99
:100B300002F00250F314006E0350F414016E0050E2
:100B4000011001E1F9D1020EDBCFE9FF030EDBCF8B
:100B5000EAFFEA02F3CFEAFFE902F3CFE9FFF4503C
:100B6000EA26020EE926000EEA22AA0EE926000E67
:100B7000EA22EFCF00F0140E00C0DBFF150EDB6A97
:100B8000160EDB6A170EDB6A020EDBCFE9FF030EDF
:100B9000DBCFEAFFEA02F3CFEAFFE902F3CFE9FF96
:100BA000F450EA26010EE926000EEA22AA0EE926F2
:100BB000000EEA22EFCF00F0016A026A02C003F0E1
:100BC00001C002F000C001F0006A180E00C0DBFF97
:100BD000190E01C0DBFF1A0E02C0DBFF1B0E03C0A3
:100BE000DBFF020EDBCFE9FF030EDBCFEAFFEA02F9
:100BF000F3CFEAFFE902F3CFE9FFF450EA26AA0EA9
:100C0000E926000EEA22EFCF00F0016A026A036AC9
:100C1000100ED8900036013602360336E806F9E1A8
:100C20001C0E00C0DBFF1D0E01C0DBFF1E0E02C04C
:100C3000DBFF1F0E03C0DBFF180EDBCF04F0190E25
:100C4000DBCF05F01A0EDBCF06F01B0EDBCF07F073
:100C5000D950140FE96E000EDA20EA6EEE50042629
:100C6000EE500522EE500622EE500722D9501C0FFE
:100C7000E96E000EDA20EA6E0450EE24006E055094
:100C8000EE20016E0650EE20026E0750EE20036E3D
:100C9000100E00C0DBFF110E01C0DBFF120E02C000
:100CA000DBFF130E03C0DBFF0C0EDBCF00F00D0EDD
:100CB000DBCF01F00E0EDBCF02F00F0EDBCF03F027
:100CC000D950100FE96E000EDA20EA6E030EEBCF5A
:100CD000F3FF0350F318E8AE02D0F33408D0EE501F
:100CE000005CEE500158EE500258EE50035801E3FC
:100CF00023D106D10001FE51E824010FEA6ADA0F80
:100D0000E96E000EEA22EF50026E036AE66E03C03F
:100D1000E6FF020EDBCF04F0030EDBCF05F0080E7A
:100D2000045E000E055A04C0E6FF05C0E6FF66EC4F
:100D300001F0E552E552E552E7CF03F0E552E7CF87
:100D400002F00250F314006E0350F414016E0050D0
:100D5000011001E1F1D0020EDBCFE9FF030EDBCF82
:100D6000EAFFEA02F3CFEAFFE902F3CFE9FFF4502A
:100D7000EA26020EE926000EEA22AA0EE926000E55
:100D8000EA22EFCF00F0140E00C0DBFF150EDB6A85
:100D9000160EDB6A170EDB6A020EDBCFE9FF030ECD
:100DA000DBCFEAFFEA02F3CFEAFFE902F3CFE9FF84
:100DB000F450EA26010EE926000EEA22AA0EE926E0
:100DC000000EEA22EFCF00F0016A026A02C003F0CF
:100DD00001C002F000C001F0006A180E00C0DBFF85
:100DE000190E01C0DBFF1A0E02C0DBFF1B0E03C091
:100DF000DBFF020EDBCFE9FF030EDBCFEAFFEA02E7
:100E0000F3CFEAFFE902F3CFE9FFF450EA26AA0E96
:100E1000E926000EEA22EFCF00F0016A026A036AB7
:100E2000100ED8900036013602360336E806F9E196
:100E30001C0E00C0DBFF1D0E01C0DBFF1E0E02C03A
:100E4000DBFF1F0E03C0DBFF180EDBCF04F0190E13
:100E5000DBCF05F01A0EDBCF06F01B0EDBCF07F061
:100E6000D950140FE96E000EDA20EA6EEE50042617
:100E7000EE500522EE500622EE500722D9501C0FEC
:100E8000E96E000EDA20EA6E0450EE24006E055082
:100E9000EE20016E0650EE20026E0750EE20036E2B
:100EA000100E00C0DBFF110E01C0DBFF120E02C0EE
:100EB000DBFF130E03C0DBFF0C0EDBCF00F00D0ECB
:100EC000DBCF01F00E0EDBCF02F00F0EDBCF03F015
:100ED000D950100FE96E000EDA20EA6E030EEBCF48
:100EE000F3FF0350F318E8AE02D0F33408D0EE500D
:100EF000005CEE500158EE500258EE5003581CE2D0
:100F0000D9CFE9FFDACFEAFF080EEECFDBFF090EFB
:100F1000EDCFDBFFD950100FE96E000EDA20EA6E3C
:100F20000C0EEECFDBFF0D0EEECFDBFF0E0EEECF85
:100F3000DBFF0F0EEECFDBFF020EDB2A030E01E21A
:100F4000BED5DB2ABCD5080EDBCFE6FF090EDBCF12
:0C0F5000E6FF33EC01F0E552E55219D445
:040F5C00E9CFE4FFF6
:100F6000EACFE4FFF6CFE4FFF7CFE4FFF8CFE4FFEA
:100F7000F5CFE4FFF3CFE4FFF4CFE4FFFACFE4FFD3
:100F8000FBCFE4FF00EE0AF0020EE80403E3EECF2D
:100F9000E4FFFBD700EE00F0080EE80403E3EECF19
:100FA000E4FFFBD7E652D9CFE6FFDACFE6FFE1CF89
:100FB000D9FFE2CFDAFFE652E6529EB69E969EAA8F
:100FC000B7D09AEC09F0E66E6E0E01011525E96EB8
:100FD000000E1621EA6EE552E750EF6E250E151948
:100FE00001E1165146E00B0E151901E116511BE007
:100FF000010E151901E116510DE0155101E082D0E5
:10100000165101E07FD0020E00016E5D01E07DD03F
:10101000010178D0152B000E162300016F5101013C
:10102000136F146B72D0152B000E16230101135190
:10103000010115196AE1010114510101161965E157
:1010400015C1E9FF16C1EAFFE906000EEA5A6E0E65
:10105000E926000EEA22EF50030857E1156B166BE4
:101060000001FE510001705D50E10101010E0B6FA6
:101070004CD0152B000E162315510101131945E113
:10108000010116510101141940E115C1E9FF16C112
:10109000EAFFE906000EEA5A6E0EE926000EEA2281
:1010A000EF50030832E10101156B166B0101010ECF
:1010B0000A6FDE6ADD6ADECF08F0DDCF09F0210EAF
:1010C000085C000E095821E2DECFE9FFDDCFEAFF20
:1010D000040EE926000EEA226E0EE926000EEA2230
:1010E000EF50E66EDECFE9FFDDCFEAFFDA0EE9264C
:1010F000000EEA22E552E750EF6EDF2A010EDBE335
:10110000DB2AD9D7152B000E16230101020ED88039
:101110001555000E16550BE2010113510101155D25
:10112000010114510101165902E3156B166B9E9AC9
:10113000E552E552E552E5CFDAFFE7CFD9FFE552B8
:1011400000EE07F0080EE80403E3E5CFEDFFFBD760
:1011500000EE0BF0020EE80403E3E5CFEDFFFBD752
:10116000E5CFFBFFE5CFFAFFE5CFF4FFE5CFF3FFD7
:10117000E5CFF5FFE5CFF8FFE5CFF7FFE5CFF6FFC9
:10118000E5CFEAFFE5CFE9FF1100D8CFE4FFE0CFDC
:10119000E4FFE46EE652F2B4F294E552E550E5CF96
:0811A000E0FFE5CFD8FF1000CD
:0811A8001E0EF66E000EF76E3C
:1011B000000EF86E01010900F550056F0900F550A9
:1011C000066F03E1056701D03DD00900F550006FBF
:1011D0000900F550016F0900F550026F0900090080
:1011E000F550E96E0900F550EA6E090009000900A2
:1011F000F550036F0900F550046F09000900F6CFA0
:1012000007F1F7CF08F1F8CF09F100C1F6FF01C1EE
:10121000F7FF02C1F8FF0101035302E1045307E0A5
:101220000900F550EE6E0307F8E20407F9D707C18D
:10123000F6FF08C1F7FF09C1F8FF01010507000E1D
:06124000065BBFD712009F
:0A124600D9CFE6FFDACFE6FFE1CFD3
:10125000D9FFE2CFDAFFAC6AAB6AFD0EDBB0AC8837
:10126000DBA202D0AC8CAB8CDBB4AC8EDBA602D0A4
:10127000AB8801D0AB8ADBB8AC849E98DBBAAB8676
:10128000DBAC02D09D8A01D09D9A9E9ADBAE02D043
:101290009D8801D09D98FB0EDB50AF6EFB0EFC0EBF
:1012A000DBCF01F001C000F0016A0050B06EAC8AE3
:1012B000AB8E949C948EAC50100B04E0AC50800B21
:1012C00001E1948CE552E5CFDAFFE7CFD9FF1200B8
:1012D000D9CFE6FFDACFE6FFE1CFD9FFE2CFDAFFE1
:1012E0003F0EC716C66AFD0EDB50C612FB0EDB5062
:1012F000C712FC0EDB50030A09E0010A04E0020AEF
:1013000006E1C78C04D0C78CC68801D0C688FD0E04
:10131000DB50050A03E0010A03E1928A938201D0BF
:1013200093929380949EC68AE552E5CFDAFFE7CF89
:04133000D9FF1200CF
:0C133400D9CFE6FFDACFE6FFE1CFD9FF0A
:10134000E2CFDAFFE652F20E0001FF17ABAC03D09A
:10135000FF91ABB0FF81ABB4FF85ABB2FF87AE505E
:10136000DF6EDF50E552E552E5CFDAFFE7CFD9FF78
:02137000120069
:0E137200D9CFE6FFDACFE6FFE1CFD9FFE2CF19
:10138000DAFFFD0EDB507F0BD56ED76AD66AF2947A
:10139000FD0EDBAE02D0F28A01D0F29AD58EE55274
:0A13A000E5CFDAFFE7CFD9FF120016
:0613AA00D9CFE6FFDACF07
:1013B000E6FFE1CFD9FFE2CFDAFFACAC04D0AC90CE
:1013C0000001FFB3AC80FD0EDB50AD6EE552E5CF02
:0813D000DAFFE7CFD9FF12009C
:0813D800000EF36E00EE00F0C0
:1013E000080E01D81200EA6002D0EE6AFCD7F35072
:0813F000E9601200EE6AFCD76F
:0813F80013EE00F023EE00F0FB
:10140000F86A0B9CD4EC08F003EC00F0A3EC03F0BA
:04141000FBD71200F4
:021414000000D6
:020000040030CA
:0100000024DB
:0100010008F6
:010002003FBE
:010003001EDE
:010005008179
:010006008178
:010008000FE8
:01000900C036
:01000A000FE6
:01000B00E014
:01000C000FE4
:01000D0040B2
:00000001FF
