:020000040000FA
:0600000004EF03F0120002
:020006001200E6
:0600080048EF01F01200B8
:02000E0000549C
:06001000313031303100F7
:020016000000E8
:06001800FBEF01F01200F5
:02001E000200DE
:1000200016000000C1000000020000000E000000E9
:08003000B70000000800000009
:08003800C26A0C0EC16EB80E85
:10004000C06E928092829284C2809D969E96929675
:1000500089960001100EAC6FD76AD66AD596D58402
:10006000D582D580D59A5F0EE66EC1EC02F0E552DE
:10007000F29CF29E1200D9CFE6FFE1CFD9FF040E29
:10008000E1268986DE6ADD6ADECF02F0DDCF03F08D
:10009000D890035004E6140E025C000E035805E2EB
:1000A000DF2A010EF1E3DB2AEFD7020EDB6A030E33
:1000B000DB6A020EDBCF02F0030EDBCF03F0D89039
:1000C000035004E60C0E025C000E03582CE2020EF4
:1000D000DBCF02F0030EDBCF03F0FD0EDB5002247A
:1000E000E96EFE0EDB500320EA6EEF50E66EDDECAB
:1000F00002F0E552DE6ADD6ADECF02F0DDCF03F00A
:10010000D890035004E6140E025C000E035805E27A
:10011000DF2A010EF1E3DB2AEFD7020EDB2A030E02
:10012000C8E3DB2AC6D7DE6ADD6ADECF02F0DDCFA8
:1001300003F0D890035004E6140E025C000E03583E
:1001400005E2DF2A010EF1E3DB2AEFD78996DE6AAA
:10015000DD6ADECF02F0DDCF03F0D890035004E675
:10016000C80E025C000E035805E2DF2A010EF1E31F
:10017000DB2AEFD7040EE15C02E2E16AE552E16EB0
:10018000E552E7CFD9FF1200D9CFE6FFE1CFD9FF83
:10019000060EE12651DF0001020E606F0C0E616F4A
:1001A000640E626FACC063F03C0E646F656F666F87
:1001B000676F686F696F6A6B030E6B6F190EE66E7F
:1001C000E66A7C0EE66E5DEC02F0E552E552E55221
:1001D000080EB86ED08E9F8AF28E0001B751FDE0F6
:1001E000B76B7F0E0001705D0DE1B8C064F0B9C05F
:1001F00065F0BAC066F0BBC067F0BCC068F0BDC0B7
:1002000069F03ED0F30EC216030EC212C2B2FED780
:10021000C4CF64F0C3CF65F0020EDB6A030EDB6A65
:10022000020EDBCF02F0030EDBCF03F0640E025CA4
:10023000000E035806E2020EDB2A030EF1E3DB2A6E
:10024000EFD7C294C284030EC212C2B2FED7C4CF8B
:1002500066F0C3CF67F0020EDB6A030EDB6A020EA4
:10026000DBCF02F0030EDBCF03F0640E025C000E66
:10027000035806E2020EDB2A030EF1E3DB2AEFD776
:10028000600EE66E000EE66EF6DEE552E552A5D78C
:10029000DACFE4FFE2CFDAFFE9CFE4FFEACFE4FF11
:1002A000F6CFE4FFF7CFE4FFF5CFE4FFF3CFE4FFB1
:1002B000F4CFE4FFFACFE4FF00EE00F0020EE80412
:1002C00003E3EECFE4FFFBD700EE02F0020EE804FA
:1002D00003E3EECFE4FFFBD7E6529EB69E969EAABE
:1002E00066D0A2EC02F0E66E6C0E0001C125E96E4C
:1002F000000EC221EA6EE552E750EF6E0B0EC119F7
:1003000001E1C25118E0010EC11901E1C2510AE038
:10031000C15137E1C25135E1020E00016C5D34E19B
:1003200000012FD0C12B000EC22300016D5100012E
:10033000BF6FC06B29D0C12B000EC2230001BF517B
:100340000001C11921E10001C0510001C2191CE1E5
:10035000C1C0E9FFC2C0EAFFE906000EEA5A6C0E0E
:10036000E926000EEA22EF5003080EE1C16BC26BD2
:100370000001AC5100016E5D07E10001010EB76F95
:1003800003D0C12B000EC2230001020ED880C1553C
:10039000000EC2550BE20001BF510001C15D00011A
:1003A000C0510001C25902E3C16BC26B9E9AE55273
:1003B00000EE03F0020EE80403E3E5CFEDFFFBD708
:1003C00000EE01F0020EE80403E3E5CFEDFFFBD7FA
:1003D000E5CFFAFFE5CFF4FFE5CFF3FFE5CFF5FF7B
:1003E000E5CFF7FFE5CFF6FFE5CFEAFFE5CFE9FF81
:1003F000E5CFDAFF1100D8CFE4FFE0CFE4FFE46EF1
:10040000DACFE4FFE652F2B4F294E552E5CFDAFF38
:0C041000E550E5CFE0FFE5CFD8FF10007D
:04041C001E0EF66E4C
:10042000000EF76E000EF86E00010900F550B26F75
:100430000900F550B36F03E1B26701D03DD0090068
:10044000F550AD6F0900F550AE6F0900F550AF6F74
:1004500009000900F550E96E0900F550EA6E09003F
:1004600009000900F550B06F0900F550B16F09009F
:100470000900F6CFB4F0F7CFB5F0F8CFB6F0ADC0C5
:10048000F6FFAEC0F7FFAFC0F8FF0001B05302E1C6
:10049000B15307E00900F550EE6EB007F8E2B1077E
:1004A000F9D7B4C0F6FFB5C0F7FFB6C0F8FF00013A
:0A04B000B207000EB35BBFD71200C5
:0604BA00D9CFE6FFDACF06
:1004C000E6FFE1CFD9FFE2CFDAFFAC6AAB6AFD0EFF
:1004D000DBB0AC88DBA202D0AC8CAB8CDBB4AC8ED6
:1004E000DBA602D0AB8801D0AB8ADBB8AC849E9887
:1004F000DBBAAB86DBAC02D09D8A01D09D9A9E9A76
:10050000DBAE02D09D8801D09D98FB0EDB50AF6E14
:10051000FB0EFC0EDBCF03F003C002F0036A0250B7
:10052000B06EAC8AAB8E949C948EAC50100B04E0F1
:10053000AC50800B01E1948CE552E5CFDAFFE7CFB8
:04054000D9FF1200CD
:0C054400D9CFE6FFDACFE6FFE1CFD9FF08
:10055000E2CFDAFFE652F20E0001C317ABAC03D0D4
:10056000C391ABB0C381ABB4C385ABB2C387AE504C
:10057000DF6EDF50E552E552E5CFDAFFE7CFD9FF76
:02058000120067
:0E058200D9CFE6FFDACFE6FFE1CFD9FFE2CF17
:10059000DAFFFD0EDB507F0BD56ED76AD66AF29478
:1005A000FD0EDBAE02D0F28A01D0F29AD58EE55272
:0A05B000E5CFDAFFE7CFD9FF120014
:0605BA00D9CFE6FFDACF05
:1005C000E6FFE1CFD9FFE2CFDAFFACAC04D0AC90CC
:1005D0000001C3B3AC80FD0EDB50AD6EE552E5CF3C
:0805E000DAFFE7CFD9FF12009A
:0805E800000EF36E00EE00F0BE
:1005F000080E01D81200EA6002D0EE6AFCD7F35070
:08060000E9601200EE6AFCD76C
:0806080013EE00F023EE00F0F8
:10061000F86A019C0EEC02F003EC00F0C4EC00F070
:04062000FBD71200F2
:020000040030CA
:0100000024DB
:0100010008F6
:010002003FBE
:010003001EDE
:010005008377
:010006008178
:010008000FE8
:01000900C036
:01000A000FE6
:01000B00E014
:01000C000FE4
:01000D0040B2
:00000001FF
