:020000040800F2
:10000000F8FF0120610102080F120608FD11060821
:10001000111206081D120608291206080000000029
:10002000000000000000000000000000351206087B
:1000300037120608000000000928060821280608D3
:1000400001000208B5120608C1120608C912060806
:100050009B8E060801000208618106086781060878
:100060006D810608738106087981060855490608DE
:100070006549060875490608854906089549060830
:10008000A5490608B5490608010002080100020852
:10009000E56C0608F56C0608056D06087F81060804
:1000A000DD120608E3120608F5120608FB12060820
:1000B00001130608071306080D1306082150060849
:1000C0003D50060859500608755006080100020800
:1000D000010002085D130608631306086913060889
:1000E000A3810608BB120608451206083913060844
:1000F0003F1306085713060851130608C54906089A
:1001000001000208CD980608151306080100020830
:100110006F130608751306082D1306083313060817
:10012000D5490608E5490608F5490608054A0608BE
:10013000154A060800000000000000000100020847
:10014000116D0608216D0608316D06083912060882
:10015000254A0608354A0608454A06087B1306085C
:100160000100020801000208010002080100020863
:100170000100020801000208000000000000000069
:08018000010002080100020861
:10018800006870470B0A017043700B0C090E8370EE
:10019800C1707047036A0239023B8B4283BFC3892F
:1001A800406B01FB030000207047034600F10B0180
:1001B8000020C20142EA500213F8010B50FA82F201
:1001C8008B42D0B2F5D1704737B50D46044620B9F9
:1001D800092000232B6003B030BD0368002BF7D043
:1001E8005A79002AF4D081885A899142F0D1186846
:1001F8000DF10702062102F0C5FA9DF8073003F059
:100208000103034313F0FF00E2D12368E2E738B5A6
:10021800C3790446C3B100F13C05826B0068012331
:10022800294602F09AFA88B9A16BE36A626AE0711A
:10023800CB1A934208D2A379022B05D10A4420682D
:100248000123294602F089FA002038BD0120FCE785
:100258002DE9F0470026D0F800908E75836907468F
:100268000C46002B7DD0C36A01335FD1F9690023A6
:100278004D1E18462E2615F8012F202A00F10100E0
:100288000CD0052A08BFE522092804D10B2B9EBFF4
:10029800E71801337E72E71801337A720B28EAD126
:1002A800E21800205072A27D002A4FD1002B44D0C2
:1002B80004F1080308255A78581C002A53D11B1B3F
:1002C800083B3DE0B8F1000F05D100F520539BB283
:1002D800B3F5006F13D340F2B51140EA08404FF070
:1002E80079FFFF28C5F1FF0A18D9BAF1010F20D903
:1002F8006319020A9A75D87502231D440020023634
:100308008046D9F81030985B0028DBD1B8F1000F8F
:1003180018BF002525440023AB75A7E748B1BAF1FB
:10032800000F08D0631998750123E6E7B0463546F3
:10033800E7E70025EAE75546E8E73F23A3750123E9
:10034800234400229A750B7B03B96372CB7A23721C
:1003580001F11C00FFF714FF2060CB8AE3800B8BB0
:10036800A380BDE8F0872E2A134609D0413A192AFE
:1003780003D80A7B154200D02033437303469AE71B
:100388001025FAE738B50568044615F8010B20B1C1
:1003980040F2B5114FF03CFF08B1256038BD4FF071
:1003A800FF30FBE7C2F307238A76CB764379032B2A
:1003B80001BF120C0A75120A4A75704738B5836B6B
:1003C8008B4205460C4610D0FFF721FF60B9224644
:1003D8002868012305F13C0102F0B0F900281CBF90
:1003E8004FF0FF340120AC6338BD0020FCE700006B
:1003F80038B50023C3714FF0FF3383630546FFF719
:10040800DDFF044608BBB5F83A224AF655239A425E
:100418001DD195F83C2002F11803DBB2012B01D95C
:10042800EB2A16D10C49032205F1720056F0B4FAF2
:1004380048B10A49052205F18E0056F0ADFA041EAE
:1004480018BF01246400204638BD0424FBE70324B8
:10045800F9E70224F7E700BF0504070809040708BD
:10046800F0B5044687B06379006801F0FE0583B1F2
:100478000DF10702062102F085F99DF80730DE0725
:1004880007D40DB15C0702D4002007B0F0BD0A20E4
:10049800FBE70023637120680DF10702052102F0D4
:1004A80071F99DF80730D80700F1ED800DB15907B3
:1004B800EDD400212046FFF79BFF0228034603D016
:1004C800012824D8257975B302AA04F2022304F27C
:1004D8004221174613F8040C10B11846FFF750FED6
:1004E8001033994242F8040BF4D1267906B1013E43
:1004F80057F826507DB129462046FFF779FF034675
:10050800227952B9012B0ED90136032EF0D9042BCA
:1005180007D10120B9E70323F2E7042BF9D0012B17
:1005280001D90D20B1E7B4F84730B3F5007FF8D111
:10053800B4F8521021B904F16000FFF721FE01461A
:1005480094F84C3061625A1E012AA371E9D894F8D4
:100558004960E681002EE4D0721E3242E1D1B4F83F
:100568004D70A7813A07DCD1B4F84F0018B904F1EF
:100578005C00FFF705FEB4F84A20002AD1D001FB41
:1005880003FE02EB171CF4446045CAD3A0EB0C0031
:10059800B042B0FBF6F3C4D33C488342C1D84FF60F
:1005A800F57083425DD840F6F576B3428CBF0226DB
:1005B800012602332A440CEB0500032E2362A562B0
:1005C800E26260634FD1B4F866203A43A9D104F1DE
:1005D8006800FFF7D5FD9B0003F2FF13B1EB532F23
:1005E80020639ED34FF0FF33C4E90533032E4FF049
:1005F800800323722BD1B4F86C30012B27D1691CEE
:100608002046FFF7DBFE10BBB4F83A2220724AF608
:1006180055239A421BD104F13C00FFF7B1FD1C4B56
:10062800984214D104F50870FFF7AAFD03F1FF53AF
:1006380003F500532033984209D104F50970FFF7F8
:100648009FFDA06104F50A70FFF79AFD6061114AE9
:100658006671138801339BB2138063810023E361C1
:1006680012E70326A5E7002F3FF45BAF022E02EB4B
:100678000E004FEA43021BBFD21803F001031346D2
:1006880003EB5203A8E70320FFE600BFF5FFFF0FC7
:10069800525261410404002001292DE9F047064621
:1006A8000C4617466FD9036A8B426CD94379022BE3
:1006B8003ED0032B4FD0012B65D101EB5108C16A05
:1006C80001EB5821FFF77AFE054630BB06F13C09DD
:1006D80008F1010AC8F3080814F0010418BF19F852
:1006E8000820FBB21EBF02F00F0242EA0313DBB27E
:1006F80009F80830F16A0123F37101EB5A213046F9
:10070800FFF75CFE054640B9CAF3080A44B1C7F3CF
:10071800071709F80A700123F3712846BDE8F08726
:1007280019F80A30C7F3032723F00F031F43F0E734
:10073800C16A01EB1421FFF741FE05460028ECD100
:10074800640006F13C0304F4FF741A191F55C7F33B
:1007580007275770DFE7C16A01EBD411FFF72EFEB8
:1007680005460028D9D1A40006F13C0304F4FE7420
:1007780023441846FFF704FD014667F31B0118469A
:10078800FFF700FDC7E70225C7E7F8B505460E469F
:10079800FFF73DFD0446F8B931462846FFF7FAFC55
:1007A80005F13C070646A8634FF400722146384617
:1007B80056F0CAF8EB899C4204D3E889001B18BF9D
:1007C8000120F8BD286801233219394601F0C5FF18
:1007D8000028F2D10134EDE70120F2E7F8B504462C
:1007E800FFF715FD0546002842D16379032B37D161
:1007F800277A012F34D104F13C0601464FF40072E8
:10080800304656F0A1F8552384F83A32AA2384F8E2
:100818003B3252234122722184F83C3084F83D3027
:10082800612384F83E3084F8233284F83F2084F82A
:10083800201284F8211284F82222A16904F5097093
:10084800FFF7A0FC616904F50A70FFF79BFCA26A38
:1008580020680132A2633B46314601F07EFF2572D3
:1008680000222068114601F08DFF003818BF0120D2
:10087800F8BD03284B8B04BF8A8A43EA0243184613
:1008880070470129F8B506460C464ED9036A9942C5
:100898004BD24379022B29D0032B34D0012B44D1DE
:1008A80001EB5105C16A01EB5521FFF787FD10B136
:1008B8004FF0FF30F8BD6F1CF16AC5F308053544E9
:1008C80001EB5721304695F83C50FFF777FD00289B
:1008D800EED1C7F30807374497F83C3045EA0320C0
:1008E800E3074CBF0009C0F30B00E3E7C16A01EB63
:1008F8001421FFF763FD0028DAD1640004F4FF74C3
:100908003444A08FD6E7C16A01EBD411FFF756FD36
:100918000028CDD1A40006F13C0004F4FE74204464
:10092800FFF72EFC20F07040C4E70120C2E7F8B5BD
:100938000C46012C0568064611462BD92B6AA342A2
:1009480028D92AB14FF0FF322846FFF7A5FE38B95B
:1009580021463068FFF795FF2746044608B900206E
:10096800F8BD012816D0431C16D000223946284667
:10097800FFF792FE0028F3D12A6AAB69911E8B42D9
:1009880005D20133AB612B7A43F001032B72A242EB
:10099800DED8E4E70220E3E70120E1E72DE9F843A8
:1009A800056881460F4649B96E69C6B12B6AB342DC
:1009B80098BF0126AB69A3B9002406E02846FFF7D3
:1009C80060FF0128044603D801242046BDE8F883C7
:1009D800421C54D02B6A8342F7D83E46EAE70126E8
:1009E800E8E7BE422B6A15D1741C9C4228BF02243A
:1009F800D9F800002146FFF744FF0128E4D0431C42
:100A08003DD0F0B1D5F81480B8F1010F02D92B6AA6
:100A1800984500D3B04644462B6A0134A34203D814
:100A2800B8F1010FC8D00224D9F800002146FFF719
:100A380028FF40B10128C7D0013020D04445EBD170
:100A4800BAE7002CE6D04FF0FF3221462846FFF7E0
:100A580023FE90B957B92A6AAB696C61023A93428E
:100A680010D92B7A43F001032B72AEE722463946A0
:100A78002846FFF711FE0028EDD00128A4D14FF039
:100A8800FF34A2E7013BAB61EBE72DE9F8430769C7
:100A980006682037B7F5001F24BF002383618369E8
:100AA8000446894673B1C7F30808B8F1000F39D175
:100AB80041690133836141B9B389B3EB571F31D819
:100AC8000023A3610420BDE8F883F389013B13EAFE
:100AD800572327D13046FFF7D4FE0128054601D811
:100AE8000220F0E7421C01D10120ECE7336A83427F
:100AF80012D8B9F1000FE3D061692046FFF74EFF25
:100B08000546A8B10128EBD0431CEDD0014630467C
:100B1800FFF73BFE0028E7D1656129463046FFF71D
:100B280039FBA0613C3646442761E6610020CAE7EC
:100B38000720C8E72DE9F047FF25076880460E46DD
:100B4800A9460424D8F8181019B9002C74D0042424
:100B58005BE03846FFF732FC0446002855D1D8F848
:100B68001C0001780029F2D0C37AE52903F03F037D
:100B780088F806304FD02E294DD023F02002A2F15C
:100B8800080CDCF1000242EB0C02B24243D10F2BFD
:100B980047D14C063DD5D8F81030457BC8F82C30E5
:100BA80001F0BF01437BAB4235D1428B9ABB03783E
:100BB800D7F810C0DFF8889023F040030D24013BDC
:100BC80063434FF6FF7A012419F801EB30F80EE081
:100BD80024B3FF2B1FD82CF813E0744601330132DD
:100BE8000D2AF1D10278520605D524B1FF2B12D86F
:100BF80000222CF813204B1E5FFA83F9002140468F
:100C0800FFF743FF044600289CD00023C8F818309B
:100C180012E08945C6D04FF0FF09EFE7D645DED090
:100C2800F9E7B9F1000F03D1FFF7BFFAA84203D0E3
:100C38004FF0FF33C8F82C302046BDE8F08700BFDE
:100C4800E6AB0708B1F5001FF8B5056806460C467F
:100C580001D30220F8BDCA06FBD182680161BAB986
:100C68006B79022B01D92B6B9BB9AB89B3EB541F62
:100C7800EFD9286BC6E905200028EAD000EB5420FC
:100C88003C35C4F308042544B061F5610020E1E770
:100C98001346EF891A467F02BC42114603D2284602
:100CA800FFF778FAE6E73068FFF7EBFD431C0246EA
:100CB80006D00128CDD92B6A8342CAD9E41BEBE7B9
:100CC8000120C7E7F8B50E46002107680446FFF77C
:100CD800B9FFA8B90546A1693846FFF76FFB78B98F
:100CE800E3691B78E52B00D01BB90135B54201D16A
:100CF800F8BD054601212046FFF7C7FE0028EAD0C7
:100D0800042808BF0720F3E7C16A4B1C2DE9F0410E
:100D180005680669044618D1E5274FF00108A1695E
:100D28002846FFF74BFB60B9E3691F7085F8078019
:100D38002369B3420DD201462046FFF7A6FE0028DC
:100D4800EDD0042808BF022003E0FFF77BFF00284E
:100D5800E2D0BDE8F08100002DE9F04F002187B016
:100D6800D0F800A00446FFF76DFF0546002840F0C4
:100D78008C804FF0FF394FF0FF0804F12003C4F8CE
:100D88002C90C3460293A1695046FFF717FB05460E
:100D980000287AD1E6693778002F7AD0F27AE52FE1
:100DA80002F03F03A37103D0100704D50F2B04D022
:100DB800C4F82C904DE00F2B53D194F82B305906E2
:100DC8003DD47A0643D5236996F80D80E36207F08F
:100DD800BF07737B43453CD1738B002B39D13578E2
:100DE800DAF810B005F03F050D23013D5D432A4BAD
:100DF800012113F8012BB25A71B3FF2D059328D89E
:100E0800104604924FF018FA6B1C03903BF815003B
:100E180001934FF011FA039981421AD1049A019D66
:100E2800059B11461D4A9A42E3D133785B0603D5E8
:100E380011B13BF8153063B9013F5FFA87FB002118
:100E48002046FFF722FE054600289CD01DE0BB4542
:100E5800BFD04FF0FF0BF2E74FF6FF708242E1D0B0
:100E6800F7E7BBF1000F04D13046FFF79EF9404584
:100E78000BD094F82B5015F0010599D102990B224B
:100E8800304655F089FD002892D1284607B0BDE8C4
:100E9800F08F0425F9E700BFE6AB0708F3AB0708B6
:100EA8002DE9F04F90F82BB01BF0A00489B005464F
:100EB80040F0E58007683A6932F81430002B6ED1AB
:100EC80005F1200696E807000DF114081BF0010F44
:100ED80088E8070000F0DA80402385F82B304FF0CF
:100EE800010A98E80700B4463B69ACE803002CF80F
:100EF800022BBAF1050F4FEA12428CF8002062D992
:100F0800981E524630F8021F00294AD1C4460721CC
:100F180002F00F0E0EF13000392888BF0EF13700AD
:100F28000F2A0CF8010D01F1FF314FEA12104CD8CD
:100F380001F120030DEB03027E2002F8140C05F1E9
:100F48001F0084460022914206D01CF801EFBEF132
:100F5800200F02F101093AD107299CBF01F12003B2
:100F68000DEB030C02F1010296BF1CF814CC4FF0F4
:100F7800200C0131072A00F802C0EDD92846FFF7F6
:100F8800EBFE814600287DD10AF1010ABAF1640F0F
:100F9800A7D14FF00709484609B0BDE8F08F0134E2
:100FA8008AE74FF0100C01F0010E0EEB4202D3035A
:100FB80044BF82F4883282F02102BCF1010C4FEA6E
:100FC8005101F0D19EE75246A0E70246A0E74A4603
:100FD800B9E729692846A1EB4411FFF733FE81469A
:100FE8000028D8D13046FFF7E0F84FF6FF78019097
:100FF800A9693846FFF7E2F981460028CBD1EB69A9
:10100800019AD7F810E05A73E1B24FF00F024FF08F
:101018000D0CDA72DFF8D8A018734A1E0CFB02F226
:101028009876D87684461AF8019B404518BF3EF852
:10103800120003F8090003EB090B0CF1010C18BFAF
:1010480001324FEA1029002808BF4046BCF10D0FB5
:101058008BF80190E7D1404502D03EF812200AB93A
:1010680041F0400119700123FB7100212846FFF768
:101078000CFD814600288ED1013CB9D11AE04FF011
:10108800060988E7042886D185F82BB01BF0020FE3
:101098001BBF0C340D230124B4FBF3F418BF013437
:1010A80021462846FFF70EFE814600287FF473AFDD
:1010B800013C8ED1A9693846FFF780F9814600289E
:1010C8007FF469AF01462022E86955F03DFC03CE64
:1010D800EB6918605960B278318819819A7295F86D
:1010E8002B30EA6903F0180313730123FB7152E7ED
:1010F800E6AB07082DE9F04F87B0036801930B783A
:101108002F2B0646884601D05C2B0AD1424613781D
:101118002F2B904602F10102F9D05C2BF7D0002367
:1011280001E0019BDB69B36098F800301F2B00F2E7
:101138001A8180230021304686F82B3007B0BDE89D
:10114800F04FFFF77FBDFE2D00F236812AF81530EB
:1011580001350EE1DDF814800424012D3BD1BAF8E5
:1011680000302E2B3DD100232AF8153006F11F023E
:101178009D4294BF20212E2101330B2B02F8011F21
:10118800F6D144F02004E4B286F82B403046FFF74D
:10119800E3FD96F82B30002800F0D380042840F0B7
:1011A8000C81990603F0040240F1C780002A00F080
:1011B800DA80802386F82B300020FEE008F1010356
:1011C8000593DDF8148098F800302F2BF6D05C2BAF
:1011D800F4D00024C1E7022D03D1BAF802302E2B37
:1011E800BDD00AEB450306E033F8022D202A01D0D2
:1011F8002E2A02D1013D002DF6D14FF000032AF826
:1012080015300AEB4502002D00F0D68000213AF88F
:10121800110020280B4601F10101F8D00BB92E2846
:1012280002D144F00304E4B232F8021D2E2901D0A1
:10123800013DF9D14FF020324FF00009726232625D
:10124800C6F827204FF0080B4F463AF813005A1CEF
:10125800002800F0C380202804D02E2807D1AA42F5
:1012680000F0B08044F00304E4B21346EDE7D9453A
:1012780080F0AB80AA4212D1BBF10B0F07D1A8E0D6
:10128800AA4204D044F00304E4B200F2A780BF00ED
:10129800FFB22A464FF00B0B4FF00809E5E77F280D
:1012A80037D944F00203DBB240F2B511039202933E
:1012B8004EF090FF10F0800FDDE902320FD05A494E
:1012C80000F07F00085C28B1584C14F8011B11B3DA
:1012D8008842FAD143F00303DBB25F2011E0FF2814
:1012E800F1D90BF1FF31894504D344F00304E4B28A
:1012F800D946BAE706EB0901040A81F8204009F14A
:10130800010906EB09011C4681F8200009F10109D1
:10131800ABE72346D8E7A0F1410189B2192902D8E1
:1013280047F00207EDE7A0F1610189B219299EBFD4
:10133800203847F0010780B2E3E7002A08BF0520FC
:101348003BE05A073FF538AFB379DB0638D5019B48
:1013580003F13C013369C3F308031944019B58792D
:10136800FFF787FAB0603368CDF81480D3F810A07F
:10137800002505A8FFF706F8471C1DD0B0F5803FEB
:1013880024BF030C2AF8153083B228BF01351F2B60
:101398007FF6E0AE2F2B3FF414AF5C2B3FF411AF78
:1013A8007F2B3FF6D0AE2249184611F8012B002AB0
:1013B8003FF4C9AE8242F8D1062007B0BDE8F08FED
:1013C8000520FAE7D945FFF457AFBBF10B0F7FF4BF
:1013D80057AF44F00304E4B24FF00B0B96F82030FB
:1013E800E52B04BF052386F82030BBF1080F04BFA6
:1013F800BF00FFB207F00C030C2B03D007F0030368
:10140800032B02D144F00204E4B2A5073FF5BCAEB9
:1014180047F3000303F010032343DCB2780748BF07
:1014280044F00804B0E600BF66AB070818040708D4
:101438000F04070800214171FFF712B82DE9F043A6
:101448000546ADF50D7D914698460C46002900F0FD
:10145800C08003F03F063146FFF702F80746002830
:1014680058D10CAB2B61494668460095FFF742FE00
:1014780020B99DF92B30002BB8BF062018F01C0F9F
:101488004CD000283DD0042844D16846FFF708FD19
:1014980000283FD146F008063107DDF81C9048D5F2
:1014A80049466879FFF7E5F9804668F047FA01464A
:1014B80009F10E00FEF766FE079B2022DA720799F3
:1014C80000222846FEF76EFF079B00221A775A77FC
:1014D8009A77DA770123EB71B8F1000F0ED0414605
:1014E8006846D5F83890FFF722FA98B94946284651
:1014F800FEF764FF08F1FF336B6158B946F0400608
:1015080017E09DF8063013F0110F5ED118F0040FA4
:10151800C2D008200023236007464BE00028F9D1F9
:101528009DF80630DA064ED418F0020F01D0D8071D
:101538004BD4AB6B0799236261626879FFF799F91D
:10154800A060034601F11C00FEF71AFE6A89E060FC
:101558008046B1064FF000002560A28026746074B2
:10156800E061606126D5B8F1000F23D0EA89C4F89C
:101578001480B8EB422F4FEA42260DD9194620684D
:10158800FFF77FF901280346A8EB060817D9421C84
:1015980017D04645F2D30020A3610028BAD1C8F37A
:1015A80008023AB119462846FEF7F4FD78B100EB77
:1015B8005820E06138460DF50D7DBDE8F083022026
:1015C800EAE70120E8E70420A4E70720A2E70220D1
:1015D800A0E70927EEE72DE9F04F9A4685B00023EA
:1015E8008946CAF8003003A904461546FEF7ECFD03
:1015F800064608BB667CFEB994F810B01BF00103E0
:1016080000937ED0E7686369FF1AAF4228BF2F4670
:1016180097B16269DDF80C80C2F30803002B57D13B
:10162800B8F80E30013B13EA522B15D142B9A06825
:1016380001280AD802266674304605B0BDE8F08F46
:10164800A1692068FFF71DF9F2E7431C03D10123C4
:10165800009E6374F0E7A061A1694046FEF79AFD19
:101668000028E7D0B7F5007F0BEB00022FD3B8F8BE
:101678000E1001920BEB572088424FEA572588BF7E
:10168800A1EB0B05D8F800002B46494601F056F8A7
:101698000028DCD198F807306BB1D8F83800019AE7
:1016A800801AA84207D24FF4007208F13C0109EBF6
:1016B800402055F005F96D02DAF800302B44CAF8DD
:1016C800003063692B447F1BA9446361A0E7E26192
:1016D8006569E169C5F30805C5F50075BD42404671
:1016E80028BF3D46FEF76AFE0028B0D1616908F1BF
:1016F8003C08C1F308012A464144484655F0E0F841
:10170800DAE7072698E72DE9F04F9A4685B00023D7
:101718008946CAF8003003A904469046FEF754FDEE
:10172800064628BB667C1EBB237C9A0740F1A38033
:10173800636913EB080F01D36FEA0308B8F1000FD0
:1017480012D06369039FC3F30802002A77D1FD8989
:10175800013D15EA53251ED173B9A16871B9204618
:10176800FFF71CF9014648B9237C43F04003237472
:10177800304605B0BDE8F08FA169F0E7012902D134
:1017880002266674F4E74B1C01D10126F9E7A36829
:10179800A16103B9A160BA6BE3699A4204D13846E2
:1017A800FEF735FD0028F0D1A1693846FEF7F2FCB6
:1017B8000028E5D0B8F5007F05EB000B32D3F98996
:1017C80005EB582088424FEA5823386888BF4B1BDE
:1017D8005A464946019300F0C0FF05460028D4D177
:1017E800B96B019BA1EB0B01994209D24FF400722E
:1017F80009EB412107F13C0055F062F8019BFD71AE
:101808005D02DAF800302B44CAF800306369A8EBAF
:101818000508A9441D44E3686561AB422CBFE36039
:10182800E5608BE76169E368994206D33846FEF7BD
:10183800EEFC0028A9D1C7F838B0C4F81CB0656917
:10184800E169C5F30805C5F500754545384628BF63
:101858004546FEF7B3FD002897D1636907F13C00C0
:10186800C3F3080318442A46494655F029F84FF0AF
:101878000103FB71C5E707267AE72DE9F34101A9C2
:101888000546FEF7A1FC044668BB2C7C14F0400416
:1018980029D068F053F8019F296A80463846FEF738
:1018A8008DFD0446F8B96E6AF37A43F02003F372AB
:1018B800AA6828683146FEF775FDE96806F11C003C
:1018C800FEF760FC414606F11600FEF75BFC0123BB
:1018D800B474F4743846FB71FEF780FF2B7C23F058
:1018E800400304462B74204602B0BDE8F08113B5CE
:1018F8000446FFF7C2FF28B901A92046FEF764FC99
:1019080000B9206002B010BD70B50E46ADF50C7D73
:1019180000210546FEF7A4FD044670B90CAB2B6107
:10192800314668460095FFF7E5FB044698B99DF9EE
:101938002B30002B05DA029BEB6120460DF50C7D60
:1019480070BD9DF80630DB0609D507996879FEF762
:1019580090FFE861F1E7042808BF0524EDE70524B6
:10196800EBE72DE9F0470E460021ADF5527D3170C9
:1019780007469046FEF774FD8146F0B952AB3B61CD
:10198800FB69009702934546DDF808A0BAF1000FFD
:101998001AD1454502D1013D2F2373553346A91B62
:1019A8005A5D03F8012BCA189045F9D8A8EB05032E
:1019B8000135A84538BF01231E440023484633702B
:1019C8000DF5527DBDE8F08720216846FFF73AF90A
:1019D800044630BB06993846FEF7F0FC044600BBC7
:1019E80007997879FEF745FF214602906846FFF788
:1019F80029F90446A8B900216846FFF79BF8044670
:101A080060B907997879FEF734FF50450DD0214623
:101A18006846FFF73AF804460028ECD0042C08BFC3
:101A28000224A146C9E71124FBE768460CA9FEF782
:101A38000FFC0DF14503204613F8012F0446013031
:101A4800002AF9D18542EED3281B013D22460DF12B
:101A5800460130442D1B54F033FF2F23735593E771
:101A68002DE9F7430D4601A90446FEF7ADFB0646EE
:101A7800002852D1667C002E4FD1E368AB4204D2D5
:101A8800227C12F0020F08BF1D46002263696261C2
:101A98009DB90020E2686369934282BF227CE360BB
:101AA80042F04002C3F3080388BF2274002B34D0ED
:101AB800E369834218BFE0612FE0DDF80480B8F8DD
:101AC8000E707F02FBB1013B6A1EB3FBF7F1B2FB5C
:101AD800F7F28A4217D37A421340A1696361ED1A7B
:101AE8000029D6D0BD42636922D863692B4463615B
:101AF800C5F30803002BCCD04046FEF74BFB50B192
:101B080000EB5520C6E7A16881B92046FEF746FFDD
:101B18000128014605D102266674304603B0BDE8A7
:101B2800F083481C01D10126F6E7A160A161D7E73F
:101B38003B446361237C9A07A5EB070906D5204639
:101B4800FEF72CFF054628B90146CEE72068FEF7C8
:101B580098FE05466B1CE6D0012DDCD9D8F820305C
:101B6800AB42D8D9A56129464D46BBE770B50546B5
:101B7800ADF5007D16460C4641B30021FEF770FC1A
:101B880078B925603146C5F810D02046FFF7B2FA7B
:101B9800F0B994F92B30002B0BDBA379DB0603D4C7
:101BA8000520002323600EE06879E169FEF761FEF5
:101BB800A0606B89A38000212046FFF743F8042822
:101BC800EED00028EDD10DF5007D70BD0920FAE7B3
:101BD8000428E5D0E5E713B501A90446FEF7F4FAB1
:101BE80000B9206002B010BD70B5ADF5027D0D469C
:101BF80001A90446FEF7E8FAE8B93DB929462046A6
:101C08000DF5027DBDE87040FFF71CB8019B02AAE4
:101C180001461A612046FEF78DFF10F0FB060AD137
:101C280029462046FEF714FB31462046FEF72DFFD5
:101C3800042808BF00200DF5027D70BDF0B50F46E1
:101C4800ADF50D7D002106461546FEF709FC009608
:101C5800044680B90CAB336139466846FFF74AFA47
:101C6800044640B99DF92B30002B08DB1DB12946ED
:101C78006846FEF7EDFA20460DF50D7DF0BD062409
:101C8800F9E72DE9F84F884600210446FEF7E8FBFE
:101C9800054640B9D4F820A0A369AAF102029342EC
:101CA80004D8C8F800302846BDE8F88F6379012BBE
:101CB80017D10227064639462046FEF7E2FD431CA7
:101CC80034D0012834D000B90136236A0137BB4229
:101CD800F1D8C8F80060237AA66143F001032372A3
:101CE800E1E7E16A0746064604F13C0937B92046B0
:101CF80001F1010BFEF762FBE0B959466379022B4B
:101D08000AD1E3199B8F03B901360237BAF1010AE8
:101D1800C7F30807EAD1DCE709EB0700FEF730FA5A
:101D280030F0704308BF01360437EFE70125D0E7EC
:101D38000225CEE70546CCE7F0B50E46ADF5197D90
:101D480002210546FEF78CFB044698B918AB2B61B7
:101D5800314668460095FFF7CDF9044650B99DF81D
:101D68002B3098063CD419063AD49DF80670FA0729
:101D780004D5072420460DF5197DF0BD079968792B
:101D8800FEF777FDFB0606460BD46846FEF7BCFF58
:101D980004460028EED1D6B92846FEF71FFD0446B2
:101DA800E8E7EB698342E4D00E9021460CA80C9535
:101DB800FEF748FF04460028DCD101460CA8FEF7D0
:101DC800B9FE04460028D4D00428D3D1DDE7024662
:101DD80031466846FEF7ABFD04460028CAD1DBE76A
:101DE8000624C7E72DE9F0410E46ADF5107D022126
:101DF8000546FEF735FB044600286DD110AB2B6174
:101E0800314604A80495FFF775F90446002872D0F6
:101E1800042861D19DF83B1011F020016DD168466E
:101E28000095FEF7BBFD064600285AD001285AD077
:101E3800431C5C425C4167F081FD0746002C54D18D
:101E480031462846FEF7A1FC044600284DD14FF044
:101E58002033C5F83D30C5F84130A5F845302E236C
:101E680085F83C30102385F84730394605F1520093
:101E780005F13C04FEF786F9324621462846FEF76E
:101E880091FA05F15C031A4651F8040B42F8040B69
:101E98009942F9D12E23069A85F85D3028464FF0ED
:101EA8000108FEF77FFA85F8078004A8FEF7F8FF17
:101EB8000446D0B90B9839461630FEF763F9324616
:101EC8000B992846FEF76EFA0B9B1022DA7285F8FA
:101ED8000780FEF783FC044620460DF5107DBDE81B
:101EE800F0810724A7E70224A5E7002231466846C7
:101EF800FEF71DFDF0E70824EEE70624ECE7F0B551
:101F08000D46ADF5217D022104461746FEF7A8FAD5
:101F1800002879D120AB2361294608A80894FFF747
:101F2800E9F8002870D19DF84B3013F0A00F6ED15E
:101F38000F9B6D4603F12006186859682A4603C2AC
:101F48000833B3421546F7D108AE0FCE14AD0FC50E
:101F58000FCE0FC596E80F0085E80F00394614A884
:101F6800FFF7C8F848B9169A0A9B9A4203D1189AFB
:101F78000C9B9A4203D0082046E0042844D114A8B8
:101F8800FEF78EFF00283FD11B990DF10D0301F1DB
:101F98000D020DF11D0053F8045B42F8045B834207
:101FA800F9D1188810809B7893709DF80B30DA0669
:101FB80058BF43F020030125CB72E571CB7ADB06CD
:101FC8001BD50A9A169B9A4217D06079FEF751FCE6
:101FD80001462046FEF7DEF80146D0B12046FEF75E
:101FE800EDF988B994F85D302E2B06D1169A04F1D4
:101FF8005C012046FEF7D6F9E57108A8FEF784FED5
:1020080010B92046FEF7EAFB0DF5217DF0BD06204C
:10201800FAE70220F8E70000F0B595B0064601910E
:102028000221FEF71DFA0446002833D102AF4FF013
:102038002033029305467B60C7F80730019B1B7865
:102048001F2B20D89DF80830E52B22D01DB16B1E20
:10205800FA5C202A35D0002108A808960A91FEF7D4
:10206800F1FD0446B0B9012108A8FEF763FD98BB4D
:102078000F9A45B33B4603CB1060516019889B7893
:102088009372118121E001A8FEF77CF9B0F5803F39
:1020980003D30624204615B0F0BD4EF0CDF840F22B
:1020A800B5114EF097F80028F3D01E4A12F8013BFC
:1020B80013B19842FAD1ECE7FF2822D80B2D29D189
:1020C800E7E71D46C2E7E52313700123F3713046A5
:1020D800FEF784FB0446DDE70428FBD1002DD9D0A8
:1020E800012108A8FEF7EEFD04460028D2D12022DF
:1020F80001460F9854F028FC0F9B0822DA720F9AB9
:10210800B8E7092DC5D805F150036B44020A03F856
:10211800482C013505F150036B44013503F8480C90
:102128008CE700BF54AB07082DE9F04FD0F80090BA
:102138008BB01C4600234371039103790293154623
:1021480005210DF11F02484600F01CFB9DF81F30C9
:10215800D80700F15182590700F1508208AA0321DB
:10216800484600F00FFB30B9089A531EB3F5004FEC
:1021780001D21A4201D0012308935DB19F4BA5F506
:1021880000729A4203D913200BB0BDE8F08F6B1E82
:102198002B42F8D1002C00F03382149BB3F5007F5A
:1021A800C0F02E82029B002B6DD001230022214615
:1021B800484600F0C3FA002840F0B882B4F8FE217F
:1021C8004AF655239A4201D00E20DDE7029B04EB24
:1021D800031202F5D77392F8B221002AF4D003F162
:1021E8000800FDF7CDFF804603F10C00FDF7C8FF9E
:1021F8008246BAF1150FCDF824A0E5D9B5F5813F8F
:10220800C1D2039B13F002030593039B51D003F043
:102218000703022B52D0039B03F00103C3F103030E
:10222800DBB2089A032B4FEA552502F1FF3CC2F1B5
:10223800000E45D0002D40F09D8071494FEA1A36B6
:10224800012231F8023B13B1B34240F2918040F6CB
:10225800F573BAFBF2F69E429BBF06EB46060136C3
:10226800023676088CBF7600033606F2FF162B4638
:1022780015464FF020028CBF02270127760A0192EB
:102288004FF0010B3BE009AA0121484600F07AFA19
:10229800002840F04B82039B13F0080F099B0CBFEA
:1022A8004FF03F084FF0000843458DD3A3EB080AD1
:1022B8009FE7DA077FF567AF0223B2E70323B0E7AA
:1022C800002D51D14F4A4FEA5A41012532F8023BBD
:1022D80013B18B424AD90023BAFBF5F24A4996005A
:1022E800A2F57F42F63A06F207268A424FEA5626B8
:1022F8003FF66AAF002201924FF0200B032708EB4C
:102308000B020092019AB118009A1144032F01EBB5
:102318000C0208BF009802EA0E02A2EB010206BFF7
:1023280080189344B618C8EB05120A4408BF0090F9
:1023380052453FF649AF019AAAEB0202A2EB0B0203
:10234800032FA2EB0602B2FBF5F2049214D1049912
:102358004FF6F572914200F26B81002B7FF434AF97
:10236800012D7FF631AF6D082B46B5E76D00ADE75F
:10237800520066E72A466AE7022F40F05281049924
:102388004FF6F572914208D9002B40F044816A005B
:10239800402A00F2378115464CE7049940F6F57259
:1023A800914200F24581002B7FF40EAF6D00802D25
:1023B8007FF640AF08E7514604F12000FDF7E2FE42
:1023C8005FE167F0BBFA014604F12700FDF7DAFE8A
:1023D800C6F30723E375802384F82430292384F87F
:1023E80026300A4BA67504F12B0203F1100153F8AD
:1023F800040B42F8040B8B42F9D181E100FEFF0087
:1024080038AB070846AB0708FFFFFE0F3F04070875
:10241800032F37D1012308F106022146484600F070
:102428009CF905994FF40072204654F08DFA522316
:10243800237063706123A37084F8E731049B412201
:102448007221E27084F8E41184F8E51184F8E62139
:10245800591E04F5F470FDF795FE022384F8EC315B
:1024680008F107020123214684F8FEB184F8FFA190
:10247800484600F072F9012308EB0302214648465A
:1024880000F06BF9149A00216FF30802204654F00B
:102498005BFA032F6FD1F8232370FF236370A370B7
:1024A800E37023716371A371E37123726372A37282
:1024B8000F23E372149B4FEA532A5645B34628BFAD
:1024C800D3462146009A5B46484600F046F9014645
:1024D800002840F02B814FF40072204654F034FA63
:1024E800009BB6EB0B065B440093E6D1019B032FE0
:1024F80008BF2B460193019D009A554528BF5546B4
:102508002B462146484600F028F9002840F00E8165
:10251800009B2B440093019B5B1B0193EBD1032F82
:1025280032D0099BB3F5803F30D2022F14BF01256A
:102538000425029B63B3002201232146484600F08C
:10254800FDF80246002840F0F180029B04EB0313DB
:1025580083F8B25101232146484600F0FEF80028CE
:1025680040F0E48000221146484600F00BF900389C
:1025780018BF012008E6012F6D49204618BF6FF0EB
:102588000701FDF7FFFD95E70C25D2E70625D0E703
:10259800039B1B07E6D402994FF40072204654F0BF
:1025A800D3F9552384F8C251099D84F8FE31AA2332
:1025B80084F8FF3105EB080243F6C163B2FBF3F27E
:1025C800FE2384F8C331930843F03F03012684F8BF
:1025D800C43184F8C521414604F5E37084F8BF612D
:1025E80084F8C061FDF7CEFD294604F5E570FDF7D6
:1025F800C9FD029A3346AEE70320C5E50A20C3E5C4
:102608001120C1E5059B002B7FF45CAE802A3FF6C4
:10261800DBAD15461BE6059A002A3FF4D5AD1D46ED
:102628005AE6049A40F6F5739A423FF6CDAD012773
:102638004FF400720021204654F086F93D4B84F88F
:102648000EB01A6822605A6862601A899B7AA3726F
:102658000223237301232374FB1E18BF0123CBF32A
:10266800072B5B00BAF5803F2281657384F80FB0B1
:10267800A374BFF4A0AE84F813A0CAF3072A84F8A1
:1026880014A0F82363753F232376FF23A3764146DE
:1026980004F11C00FDF776FD032F7FF492AE67F07E
:1026A8004DF9014604F14300FDF76CFD314604F194
:1026B8002400FDF767FD022384F82C30002384F8FA
:1026C8002D3084F82E3084F82F3084F8313084F897
:1026D8003330802384F840302923012284F84230A3
:1026E800154B84F83020062284F8322003F11001BB
:1026F80004F1470253F8040B42F8040B8B42F9D15A
:1027080019889B7811804FF0550B4FF0AA0A9370E7
:10271800214684F8FEB184F8FFA1012342464846C9
:1027280000F01BF8059000283FF472AE01202BE55D
:10273800F8FFFF001F0407082B04070810B50C4614
:1027480011461A4638B1234604304CF03DFD003896
:1027580018BF012010BD0420FCE710B50C46114637
:102768001A4650B1234604304CF051FD10F11E0FAB
:1027780005D0003818BF012010BD0420FCE7022056
:10278800FAE7000070B50C4615460646002831D019
:10279800234A01F00703D15C71B3002204304CF0E6
:1027A80063FD062C26D8DFE804F008050A1525186D
:1027B800180006202BF028FB2860002070BD062892
:1027C80004D14FF400702880B060F6E72BF01CFBB2
:1027D80080B2F8E701232B60EFE7062801D0430811
:1027E80006D1336AB3FA83F35B099B002B70E4E7E5
:1027F8000123FBE70420E1E7062CFBD801A353F8EB
:1028080024F000BFC3270008BB270008CB27000817
:10281800DD270008FD270008EB270008EB27000844
:1028280038A80708022970B5044615461E4613D174
:102838005368012B0AD0022B0CD01BB91168201D3C
:10284800FFF70EF9A3692B60002070BD81692B6822
:102858001944F4E70169FAE701290AD10430FFF7BE
:102868000CF80028F0D0084B1B5C33604FF0FF30A9
:10287800EBE7042906D14368002BE5D00430FFF7C5
:1028880036F8EEE71623F0E718A9070837B51D460E
:10289800043001AB1446FEF736FF38B1064B1B5C1B
:1028A8002B604FF0FF34204603B030BD019BA3429C
:1028B800F9D01C23F4E700BF18A9070813B51C4674
:1028C800043001ABFEF787FE30B1044B1B5C23607C
:1028D8004FF0FF3002B010BD0198FBE718A90708B8
:1028E80070B5054608460C462BF0B4F92346024657
:1028F80002492846BDE8704001F010B9F203070804
:10290800F8B5064610460F4631F0C2FC2B49421E68
:102918002B48002412F8013FBBB92C202BF087F973
:102928000546384631F0B4FC2F1D0246E3B206F1E5
:1029380044003946FEF782FD0646B8B328461DF026
:10294800DFFC204B985D2AF0C3FB782BE2D8712B73
:1029580008D8612B25D0622B26D02B2BDAD144F056
:102968000304D7E7723B062BD4D801A555F823F00A
:10297800992900081D290008952900081D29000823
:102988001D2900089F290008A52900080B49C1E74F
:1029980044F00104BEE744F00A04BBE744F006042F
:1029A800B8E744F01204B5E70146B3E7E30603D5F8
:1029B80029693846FFF754F82846F8BD48A807089B
:1029C80078A8070818A907082DE9F84FDDF828B0F6
:1029D8001D46DDE90C94DDE90E381746064660B160
:1029E80088420AD318F0040F19BF0BF1010B013408
:1029F80001330A2208BFB0FBF2F618F0020A3BD0F6
:102A0800002B39D00BDB0B9A934235DA1C44A345D3
:102A180003DC0BF1FF39A4EB090900232CE01A1D94
:102A28002ADB0A21B6FBF1F201FB1262002A40F010
:102A38008380C3F10104E2180133B6FBF1F605D037
:102A4800B6FBF1F001FB10600028F4D02C46D31A35
:102A5800302104F8021B002BABEB020B4FF02E02C7
:102A68006A7003F1FF35D8BF00252A46204653F087
:102A78006BFF25440023FF240BF1FF310A460A208F
:102A8800002A5BDA621C5A4567DBFE2CD4BF0022A1
:102A9800012205EB0B00B9F1000F0DD0641AA4EB6D
:102AA80009092E25302114B900F8015B0122013CE7
:102AB800A14500F8011BF6D1BAF1000F09D042B1C7
:102AC8000246104612F8011D3029FAD02E2908BFF7
:102AD800104608F001021A4329D018F0040F26D135
:102AE800002BBABF5B422D222B22632B427008F0C9
:102AF8002008C8BF64224FF00A01C9BFB3FBF2F235
:102B0800841CC41C303248F04508C8BF827080F865
:102B18000080B3FBF1F5204601FB1533B5FBF1F25C
:102B280001FB12523032303300F8022B637000235D
:102B38000370C01BBDE8F88F002287E79442B4BF3A
:102B480002F1010E9646B6FBF0FC00FB1C6630361F
:102B580005F80E60013A664692E701352E222A559D
:102B6800012296E72DE9F04F2DED028B884610EEF5
:102B7800101A97B000291C46B0EE408A9DF888309C
:102B88000D902ADAB4EE400AF1EE10FA25D6B1EE2D
:102B9800408A2D230D9E06F8013B08F1FF389FED72
:102BA800817AF0EEC87AF4EE477AF1EE10FA02F084
:102BB800200316DD43F0490443F04E00F21C43F0B5
:102BC8004601002370703470B17013700D9BD01AD9
:102BD80017B0BDEC028BBDE8F08F002BDAD10D9E4B
:102BE800DDE7B4EE488AF1EE10FA06D743F04E015D
:102BF80043F04100F21C0C46E3E742F02002662A4B
:102C08006AD143F0040B002CA8F103076BDA062401
:102C1800BC422346A8BF3B460B9318EE103A002B44
:102C280008936ED0C3F3C7537F3B07EE903A9FEDEE
:102C38005E7AF8EEE77A18EE103A67EE877AB3F123
:102C48007E5FFDEEE77A38BF4FF0000917EE905A25
:102C580028BF4FF0010909EB0500B7EE000A00F0A4
:102C68001DFAB9F1000F14BF4FF0010A4FF0FF3AF7
:102C7800B4EEC80AF1EE10FA94BF012300234B45C5
:102C880037D01BF0040F0AD0002D08DD631902337A
:102C98004345C2BF8BF0040343F0020B01341BF021
:102CA80004030E9336D0A8F10203A342C8BF2746F7
:102CB800002D2CDA022F26DDAB1C24DAC5F1000921
:102CC800B945A8BFB946A9F10209A7EB0904092C1F
:102CD8002EDC0023032235E0672A0CBF43F0020BE9
:102CE80043F0010B8FE7632C92D110230B93092437
:102CF80093E7554409EB0500B7EE000A00F0CEF95A
:102D0800B6E7089DBDE77C1C4FF00009DFE76C1CA7
:102D18003C44F9E71BF0020F06D0002C3CD0092CEC
:102D280004DC002399463AE00134F8E74FF0000943
:102D38000E9A002AA4F1090308BF07224FF00904DC
:102D480018BF0322A8EB0408062CA8EB0202A04631
:102D5800A8BF4FF00608A8EB050101399A42D4BF75
:102D6800A318E3180C911193119BA3EB08030F937D
:102D7800089B002B00F0D1800E9B002B00F0C9802F
:102D8800002D80F2C380B9F1000F0FD108F1FF3098
:102D9800CDF81C90334619E02346A14601240722AA
:102DA800D0E700BFFFFF7F7F9B209A3E334630214C
:102DB80003F8021B2E22727018464A4653F0C4FDCF
:102DC800FF2203464B4409EB080007920A2101221F
:102DD8000A91904500F3A680B8F1060F40F3AB8046
:102DE800012840F3A880B8F1070F00F0A18002285D
:102DF80000F09E8002386427B0EE480A099300F07C
:102E08004DF9F6EE007A30EE270A0A99BCEEC00AB0
:102E1800324610EE103A7B431F46079B03930F9BE5
:102E280002930B9BCDE9045BCDE900833846099BEF
:102E38001093FFF7C9FD15AA01460990304600F026
:102E48005BF9DDED157A099977EEC87A17EE902AC5
:102E5800002A57D0B8F1060FC4BF08EB4802123A4F
:102E68004FF0010AC8BF0AFA02FA0C22109B099710
:102E7800F0EE678A109217EE902A002A079A0392BA
:102E88000F9A02920B9A0A991393B4BF5744A7EB6F
:102E98000A07CDE90082CDE9045B32463846FFF7E0
:102EA80093FD15AA01461290304600F025F9DDED94
:102EB800157A129977EEC87A17EE902A12B3B0EE07
:102EC800E77AF0EEE86A37EE667A139B17EE102A77
:102ED800002A32DB4FF00A0CB7FBFCF00CFB107039
:102EE8000243002A099A08BF3A46099208BFF0EE41
:102EF800678ABAF1010F24D0109A013A4FEA5A0AA8
:102F08001092B8D10D9B3144C81A61E60C98079508
:102F180040E70E9B0C9807933CE7089A07923346C4
:102F2800104653E70A990A2779430A91013250E774
:102F380001380A2760E701275EE70997F0EE678AFC
:102F4800D7E70C9AA04502F101020C9202DA08F1C7
:102F5800010809E7099A9742D4D0079A03920F9A71
:102F680002920B9ADDE90901CDE90082CDE9045B03
:102F78003246FFF729FD0146C4E700BF08B50446FD
:102F880031B1054B4A6C0360096800232DF0A4F8A1
:102F980020461DF065F900BF144807082DE9FF41D8
:102FA800044601921F4646182AB1023A222A02D93B
:102FB800374829F097FEB442254626D34FF000083B
:102FC800711B284601AA28F0E2FB019B054428460C
:102FD8000024B04201462AD3B8F1000F00D0644261
:102FE800640044F00104A94204D00D46B5422B46C2
:102FF80042D348D0019A27492748012A08BF00220E
:103008002DF02AF83946FFF7B9FF14F8010B1EF026
:103018006FFA80460028CED12B782B2B01D125467C
:10302800CEE72D2BCAD125464FF00108C8E710F886
:1030380001CBACF13002092A0AD9BCF15F0FC8D024
:103048004CF02002A2F1610CBCF1190FC4D8573A18
:103058009342C1D983FB0441B1EBE47F03D114440B
:1030680094EA4402B5D5711B424603A803952EF095
:1030780008FA03990446B6E7187801351EF038FABD
:103088000028B3D1B6E7204604B0BDE8F08100BF00
:1030980087E706089CE706088447070810B5E8B1E3
:1030A800B5EE400AF1EE10FA18D010EE104AC4F34B
:1030B800C753034410F10A0F63F3DE540FD343429E
:1030C80000EE903AB1EE040AF8EEE00A52F0C0F8C9
:1030D80007EE104AF0EE407A87EE270A10BD07EE99
:1030E800900AB1EE040AF8EEE70A52F0B1F807EEDA
:1030F800904A20EE270AF1E700232DE9F047014422
:10310800044690469E461D4618461E469A461F4649
:103118008C4261D2A4461CF8012BA2F13009B9F106
:10312800090F39D8022F07D1354A904202DC0A220A
:1031380002FB00906446EBE7B9F1000F15D0314A65
:10314800964212D80A24B5B975460A24CDB99642D2
:10315800BE461DD8012F4FF00A0208BF03F1FF3306
:1031680002FB06964FF0000EE4E70FB90135E1E7E0
:103178000EF1010EDEE7964294BF66430133013D2E
:10318800E1E796429CBF03F1FF336643013DDDE76B
:10319800002FE7D10133CDE71FB92E2A03D101272C
:1031A800C8E7022F16D042F02009B9F1650F11D1F6
:1031B800614504D962782B2A05D104F1020C8C45AB
:1031C8001CD00227B6E72D2AFBD104F1020C4FF0E0
:1031D800010AF4E75F2AADD0BAF1000F0CD107EE6F
:1031E800906A1D44B8EE670A2844FFF757FF88ED38
:1031F800000A2046BDE8F0874042F0E70024F8E7DF
:1032080064666606979999192DE9F04F2DED048BA0
:1032180083B09FED658ADDF840909FED649A05467E
:1032280090461F4646184FF0000AF0EE488ACDED4A
:10323800018AB5422C466CD34FF0000BA31C9E426A
:1032480040F28980237843F02003692B73D1637897
:1032580043F020036E2B7ED1A37843F02003662B26
:1032680079D14FF0FF430193E31D9E4204F103001F
:103278001AD9E37843F02003692B15D1237943F059
:1032880020036E2B10D1637943F02003692B0BD1F7
:10329800A37943F02003742B06D1E37943F020038C
:1032A800792B01D104F10800B8F1000F0ED0B0421B
:1032B8000CD2037843F020036A2B07D1844204BF61
:1032C8004FF07E53019301304AF0020ABBF1000F20
:1032D80005D0DDED017AF1EE677ACDED017A844211
:1032E80040D00446B442254643D348D1BAF1010F31
:1032F80038D09DED010ABAF1000F4AD0F0EE400A2D
:10330800B0EE480A03B0BDEC048BBDE8F04F2BF0DB
:10331800DBBD15F8010B1EF0EBF88346002888D1B9
:1033280023782B2B01D12C4688E72D2B84D12C46D2
:103338004FF0010B82E76E2B0DD1637843F0200329
:10334800612B08D1A37843F020036E2B03D1E01C36
:103358008DED019AA8E701AA311B2046FFF7CCFEA4
:103368000028A1D1124913482CF0E0FD4946FFF787
:1033780005FE287801341EF0BBF80028B2D1002FD2
:10338800F0D0BAF1000FEDD19DED018A4FF0010A9E
:103398004DE717B1DFED040AB4E703B0BDEC048BC9
:1033A800BDE8F04F2CF08EBF000000000000C07F89
:1033B800A8E70608844707080846114654F0B6BA35
:1033C80070B5054608460E4653F0F8FA044620B193
:1033D80002466B68286831469847204670BD000051
:1033E8002DE9F74F8A469DF8301091460D9A11F055
:1033F800DF0F8046A2EB090559D030295AD1C3F313
:103408004721002959D05F29304E14BF04270527CA
:10341800A6F1050092FBF7F107FB112108BF06464C
:1034280009B901350132791E92FBF7F007FB10222A
:103438008A1A164413F0200241D005EBD573A5EB88
:1034480063045D10002D3EDDAB465F453A46D8F873
:103458000430D8F80000A8BF5A4631460192984770
:10346800019AABEB020BBBF1000FEEDCB9F1000FD8
:1034780007D0D8F80430D8F800004A465146984793
:103488004D44002C0FDD2544A742B946A8BFA146EC
:10349800D8F80430D8F800004A463146A4EB0904AD
:1034A8009847002CF0DC284603B0BDE8F08F084EA2
:1034B8001027BFE70CAE0127BCE7064EF8E713F06C
:1034C8000104BFD02C460025D0E700BF25370708E8
:1034D8002B370708143707082DE9F04F93B08246B9
:1034E8001E46C8079DF874301C9D0793DDE91E87AA
:1034F8000C4691460BD4A10703D121687C4B994215
:1035080005D020462AF080FC440044F0010415F060
:10351800210306D1079A302A03D1B845B8BFB84667
:103528001F4620462DF0B9FE00280DF1280B18DBA8
:10353800AA0712D52B238DF828300DF12903280767
:10354800F6B21CD5B9F1020F0DD11946302001F899
:10355800020B701C58700B4611E06B0701D5202335
:10356800E9E75B46EBE7B9F1080F5DD13021197047
:10357800290645BF06F10E015970013302330021B7
:103588000EA81970012FA3EB0B030B904FF010003E
:103598000693C5F34723C8BF054315F01002CDE9CC
:1035A8000C01CDE902638DF82710059246D0CDE9CC
:1035B800009123460DAA0CA90BA82DF031FD037824
:1035C8002D2B814606D18DF827300D9B013B00F14C
:1035D80001090D93012F40F384800D9C059BBC428B
:1035E800B8BF3C462BB19DF8273003B10134069B88
:1035F8001C44A0452DDD15F00103A8EB040429D1D6
:1036080026461C4625F001054EB1202300930023D1
:10361800019638491A465046FFF7E2FE0646059BD2
:10362800D3B9302307933AE0B9F1100FA7D119465F
:10363800302001F8020B06F117008BE70AABCDE941
:1036480000930DAA23460CA90BA82DF0E9FC81468E
:10365800C0E700240026D5E7302307939DF82730DC
:103668005BB100230122CDE900320DF1270150465C
:10367800FFF7B6FE08F1FF380644069B63B1002346
:103688000122CDE900325946069A5046FFF7A8FEB6
:10369800069B0644A8EB0308012FD8BF4746079BA3
:1036A80000930D9A01972B4649465046FFF798FE1E
:1036B80006444CB12023009300230E4901941A4676
:1036C8005046FFF78DFE06440B980EAB984201D08A
:1036D8001CF016FE304613B0BDE8F08F00242646D5
:1036E800BCE7059B002BF9D11C461E464746D6E78A
:1036F800C04D0708CB0407082DE9F043074690079B
:103708008DB098465ABFC2F380035B012B2316463F
:1037180000930A46159BDDF85090212103A8FFF776
:1037280021FAF20504461FD52E2103A853F098F973
:10373800D0B9652103A853F093F9A8B96E2103A85D
:1037480053F08EF980B9631C04F130026A443033B7
:103758006B442E2102F8241C0234302203F8242C56
:10376800A3186B4403F8240C73060ED504F1300239
:10377800631C0DEB0204252204F8242C03F130020B
:103788006A44002102F8241C1C4616F010051DD0BE
:103798009DF80C302F2B4FF0000319D8012203A9F4
:1037A800CDE900323846FFF71BFE09F1FF3905461F
:1037B800013C0DF10D01CDE900893346224638461A
:1037C800FFF70EFE28440DB0BDE8F08303A9F2E729
:1037D80003A91D46EFE700002DE9F04F81468BB0A5
:1037E80014464FF000080B461D4613F8012B0AB18A
:1037F800252AF9D1A94208D26E1AD9F80430D9F885
:10380800000032469847B04429460B78002B00F058
:103818007C8120234A1C03930027134613F8016B6D
:103828003EB12D2E25D01ED8202E29D02B2E24D0C7
:103838000026154612F8013BA3F13001092922D9C7
:103848002E2B4CD16B782A2B23D00023154612F847
:10385800011BA1F1300009281ED80A2000FB031B18
:10386800ABF13003F2E7302EE2D147F010070396B0
:1038780001E047F001071A46CFE747F00207FAE7E9
:1038880047F00407F7E70A2101FB0633A3F13006E6
:10389800CFE754F8043B023523EAE37B2B786C2B03
:1038A80008BF013595F800A0BAF1000F00F02D818E
:1038B800BAF1780F09D8BAF1570F13D8BAF1470FF0
:1038C8005AD8BAF1440F00F20E81D9F80430D9F869
:1038D800000001222946984708F101088DE04FF0C1
:1038E800FF3BDBE7AAF15803202BEED801A252F8E0
:1038F80023F000BF87390008D3380008D338000800
:10390800D3380008D3380008D3380008D338000863
:10391800D3380008D3380008D3380008E93900083C
:10392800133A000887390008EF3A0008EF3A000810
:10393800EF3A0008D3380008D3380008D338000815
:10394800D3380008D3380008D3380008D338000823
:10395800D338000887390008293A0008D338000806
:10396800513A0008D338000887390008D3380008CE
:10397800D338000887390008BAF1500FA5D154F898
:10398800043BBAF1640F194670D0BAF1750F0CBF39
:103998000A2010200022BAF1640F8DF817206CD18C
:1039A800934265DA2D228DF8172059422AF00F0329
:1039B8000F3BDBB20DF1280A0A3B0DF1180BB1FBE6
:1039C800F0FC00FB1C12092A8CBFD21830320AF80E
:1039D800012DDA458E46614656D07045EFD953E041
:1039E80054F8043B019653B1039B4A4900930422BF
:1039F8003B464846FFF7F4FC8044691CF3E6039B0A
:103A0800009345493B460522F3E754F8043B8DF8FB
:103A18001830039B009301963B46012206A9E8E76C
:103A280006A954F8040B1DF040FBBBF1FF3F01460B
:103A380004D0069B9B4538BFCDF818B0039B009374
:103A4800069A01963B46D4E754F804AB504652F028
:103A5800B5FFBBF1FF3F024602D0584528BF5A4682
:103A6800039B009301963B465146C2E70A2091E723
:103A7800BA0728D52B228DF81720002B96D1302392
:103A88008DF827300DF1270A17F0100B9DF8173025
:103A98001DD033B3039B0093012201923B460DF1E5
:103AA80017014846FFF79CFC013E8346039B0093A1
:103AB8000AAA01963B46A2EB0A0251464846FFF77E
:103AC8008FFC584498E77A07D7D52022D3E7002BF4
:103AD800ECD006AA9245E9D90AF8013C0AF1FF3A66
:103AE800E4E79B46E2E7073424F00704F4E8020120
:103AF80067F0CAFCCDE9006B00EE100A039B3A465A
:103B080051464846FFF7F8FD76E740460BB0BDE85A
:103B1800F08F00BFFDE1060802E206080EB403B507
:103B280003AA52F8041B0192FFF756FE02B05DF893
:083B380004EB03B0704700002C
:020000040802F0
:10000000FEE700000F49D1F8883043F47003C1F8CF
:1000100088300D4B1A68002042F001021A60986087
:100020001A6822F0847222F480321A60074A5A60F9
:100030001A6822F480221A60D8604FF000638B6047
:10004000704700BF00ED00E000380240103000248F
:1000500070B5002494B010252A4621460AA80494BD
:1000600036F076FC394B01941A6C42F080521A64D7
:100070001B6C03F080530193019B354B029419686C
:1000800041F4804119601B6803F480430293029B92
:1000900001224FF48033CDE908234FF4800302227C
:1000A000CDE90E23CDE90B450F230393294BD3F85C
:1000B0009C30C3F38340811E0D2924D8C3F38915D6
:1000C000A5F1C001F0291ED813F03E041BD0C3F3E4
:1000D00001429C0C190C013203F03F065B0F5200E9
:1000E00004F0F00401F4E0519B02CDE9122008A8CD
:1000F000CDE91065CDE9054107933AF06FF858B1A5
:10010000154840F079FC4FF480534FF4A05107207C
:100110004FF4A8750C26E8E7119B30210C225343BD
:10012000109AB3FBF2F3B3FBF1F201FB1232003A87
:100130001299B3FBF1F118BF012203A842F052FC5F
:1001400008B10648DDE714B070BD00BF00380240BA
:10015000007000400028004000B9060812B90608E7
:100160000446DFF82CD00B490B4A0C4B03E051F846
:10017000040B42F8040B9A42F9D300200849094ABB
:1001800001E041F8040B9142FBD3204640F0B6BD9C
:10019000F8FF01205008080800000020340000206B
:1001A00034000020C021002040F8044B40F8045BDC
:1001B00040F8046B40F8047B40F8048B40F8049B43
:1001C00040F804AB40F804BB40F804CB40F804DB33
:1001D00068467047024B5A690260586100207047B8
:1001E00034000020024B5A6912685A61704700BF00
:1001F00034000020024B9A69C0E9002198617047E1
:1002000034000020044A93691968916110B15A685A
:1002100018461047704700BF3400002038B5054D20
:100220000446AB690BB1A34200D338BD0120FFF7F0
:10023000E9FFF6E734000020C4600561466187618C
:10024000C0F81C80C0F82090C0F824A0C0F828B0E6
:10025000C0F82CD080ED0C8B80ED0E9B80ED10ABA8
:10026000C0F808E0FFF7B6BF124D6C6908B50CB9CD
:1002700040F030FD60602046FFF7D0FF23686B61DF
:100280002046C468056946698769D0F81C80D0F8A3
:100290002090D0F824A0D0F828B0D0F82CD090ED41
:1002A0000C8B90ED0E9B90ED10ABD0F808E0012088
:1002B000704700BF3400002010B50021044600F054
:1002C000C3FA18B914B120460CF0FCFC10BD002193
:1002D00000F0BABA10B50121044600F0B5FA18B919
:1002E00014B120460CF0EEFC10BDFFF7E5BF10B5D1
:1002F00001220C4600F0C6FB18B914B120460CF0E0
:10030000E1FC10BD00F0BEBB00F07EBB2DE9F04368
:100310002B4C864600254FF0030CD4F8BC0200217C
:1003200001310EEB01039A0803F00303825C5B00CA
:1003300042FA03F303F00303022BF1D0D4F8C8020E
:10034000090100EB0E108E0889B300EB86060368E6
:100350001A0729D1D4F8C8125A1AC2F3011E9942B9
:100360004FEA92174FEA4E0E4FEA12121CD8D4F8F9
:10037000CC12994218D9D4F8BC8218F8071041FA67
:100380000EF303F003030CFA0EF9012B41EA090105
:100390000AD104EB450E3F2D08F807109ABF01352E
:1003A000AEF8DC22C4F8D8320430B042CFD12DB13F
:1003B000013D04EB4503B3F8DCE2AEE7BDE8F083B2
:1003C0003400002030B51C4CD4E9B153C01AC10927
:1003D000C0F3021E6B5C012202FA0EF223EA020352
:1003E0006B54D4F8D02283094FEA101CB2EB901F53
:1003F000D4F8BC0288BFC4F8D032C15C4FEA9C0E6E
:100400000CF0030303255B0005FA03F321EA030163
:1004100000F80E100CF1010CD4F8BC024FEA9C0E4F
:100420000CF0030310F80E105A0041FA02F202F029
:100430000302022AE7D030BD3400002021F00F0172
:1004400038B50B1A134A144C013BDB00A2FB032303
:100450005B0A9A00C4E9AF030546C4F8CC12073220
:10046000A1EB831101331D4403EBD202C4F8C8127F
:100470000021C4F8C45236F06BFA002301214FF07A
:10048000FF32C4E9B433C4E9D8322381A4F85C1341
:1004900038BD00BFF32C23FA34000020024A138930
:1004A00002331381704700BF34000020024A1389D1
:1004B000023B1381704700BF34000020024B1889B3
:1004C000003818BF0120704734000020F8B51C4DDB
:1004D0002B89002243F00103C5F8D8222B81C5F8EF
:1004E000602305F1080405F5047654F8043F1A0763
:1004F0001AD1D5F8C822981AC0F3011193424FEAD5
:10050000901C4FEA41014FEA10100DD3D5F8CC22D0
:10051000934209D2D5F8BC7217F80C2042FA01F3C5
:1005200003F00303012B02D0A642DED1F8BD032362
:100530008B401A4307F80C20FFF7E8FEF4E700BFF2
:100540003400002081B3F8B5184E0F46051F002473
:1005500055F8043F1A071AD1D6F8C822981AC0F3E2
:10056000011C9A424FEA90114FEA4C0C4FEA1010CE
:100570000DD8D6F8CC229A4209D9D6F8BCE21EF89A
:10058000012042FA0CF303F00303012B03D00134E2
:10059000A742DDD1F8BD032303FA0CF31A430EF88A
:1005A0000120FFF7B3FEF2E7704700BF34000020E0
:1005B0002DE9F043614ED6F8D832D6F8BC1283B09C
:1005C000C3B1D6F8C03200259800C6F8D85288B119
:1005D0000024A30804F00302CB5C5200134103F093
:1005E0000303032B56D001348442F2D3D6F8D83219
:1005F000002BEAD1D6F8D4324FF000094FEAD308E5
:100600000127D6F8C43213F809504FEAC90425B9B6
:100610003AE06D0804F1010436D004F00303E80762
:100620004FEA94024FEA4303F3D58A5C42FA03F39C
:1006300003F00303012BECD1D6F8C8C223016A46AC
:100640005CF8033040F245310CEB04105BB10BF069
:10065000CBFC009B3BB10CF081FDDDE900010CF00F
:100660004DFD0CF091FDE308D6F8C40204F007013B
:10067000C25C07FA01F122EA0102C2546D08D6F801
:10068000BC1204F10104C8D1C84509F1010313D01B
:100690009946B6E72046FFF739FED6F8C032D6F8BD
:1006A000BC120134B4EB830F4FEA830091D3D6F828
:1006B000D832002B89D19DE70027BE463A46032455
:1006C00002250FE0012806D104FA03F32CEA030304
:1006D0000B704FF0010ED6F8D43201329A421FD877
:1006E000D6F8BC12900802F0030311F800C05B00BA
:1006F0004CFA03F000F00300022801EB920119D03C
:100700000328DFD105FA03F32CEA030C81F800C0BB
:10071000D6F8D432174601329A424FF0000EDFD994
:100720003389002223F00103C6E9B427338103B0E3
:10073000BDE8F083BEF1000FEAD0C5E73400002029
:10074000044B1A89002142F00102C3F8D8121A8121
:10075000FFF72EBF340000203A4B2DE9F04FD3E9CC
:10076000B2420021121BD3E9AF54C0E90111C0E924
:100770000311C0E9051102604FEA840C8B460E4656
:100780000C460A46894688468E4615F809304FEAD7
:10079000480843FA08F303F00303012B48D0022B67
:1007A00042D02BB90BF1010BC0F808B001361C4642
:1007B000013294450DD04FEA920902F0030815F872
:1007C00009304FEA480A43FA0AF39F07DDD403F0E1
:1007D0000303012C13D0022C04D1476907F101084F
:1007E000C0F814808769A74238BF8461944511D04E
:1007F000012B21D04FEA920902F00308C5E70769EF
:1008000007F101088769C0F81080A74238BF8461EA
:100810009445EDD1B64500D2C66009014FEA0B17E9
:10082000C0E90117BDE8F08F013141600134BFE735
:10083000013141601C46BBE7B64501D2C660B646F1
:100840000026D7E7340000202DE9F84300F10F0619
:10085000360953D06B4C2389002B4FD1B4F85C235D
:100860000D46002A50D0D4E9D81291424AD2D4F889
:10087000D002D4F8C012884238BF9E464DD2D4F878
:10088000BCC201380139604461440022CCF1010747
:1008900018E0013296424BD913F00C0F1ED10132F1
:1008A000964240F2A08013F0300F1CD101329642E4
:1008B00040F29E803F2B1AD80132964240F29D8032
:1008C000814218D007EB000810F8013F13F0030F26
:1008D000DFD013F00C0F4FF00002E0D013F0300F18
:1008E0004FF00002E2D03F2B4FF00002E4D98142EA
:1008F0004FF00002E6D1BEF1000F0ED000231846E3
:10090000BDE8F88346F090FFD4F8D002D4F8C012C6
:100910008842F3D24FF0010EB1E746F085FFD4F8DC
:10092000D002D4F8C01281424FF0010EA7D8E5E7FB
:100930004FEA8808A8EB0201012A01F1010704D15E
:1009400008F101039B08C4F8D032D4F8D4324345EF
:1009500038BF4346B808C4F8D43207F0030E1CF879
:1009600000904FEA4E0E0123023103FA0EF343EAE0
:10097000090388450CF8003012D34FF0020E8808A6
:10098000D4F8BCC201F003031CF800905B000EFA1F
:1009900003F3013143EA090388450CF80030EED235
:1009A000D4F86033D4F8C8823344C4F8603308EB19
:1009B000071312011846002135F0CAFFEA074FEA73
:1009C000071603469BD50022D4F8C40248F8062037
:1009D000F9080122445C07F00707BA402243425459
:1009E0001846BDE8F8834FEA880808F10108A1E736
:1009F0004FEA880808F102089CE74FEA880808F1E6
:100A0000030897E734000020034B1A89012A02D813
:100A100008B1FFF7D7BC704734000020034610F040
:100A20000F001BD1164AD2F8C812994218D810B438
:100A3000D2F8CC429C420ED95B1AD2F8BC429A0939
:100A4000C3F30111A25C49000A4102F00302012A2A
:100A50004FEA131305D05DF8044B70470020704730
:100A6000704701301A18910802F00302615C5200CD
:100A700041FA02F202F00302022AF2D00001EAE790
:100A8000340000202DE9F84F0F460646002800F0FC
:100A9000C980714D2C89002900F08880002C40F01D
:100AA0008980D5F8C802D5F8C0C2301A030903F10D
:100AB000010E0F31BEEB8C0F4FEA11114FEA8C0A79
:100AC00080F0B680D5F8BC92A4464FF001084FEAFA
:100AD0009E040EF0030B19F804404FEA4B0B44FA46
:100AE0000BF404F00304022C68D02CB90CF1010CB7
:100AF0000CEB08048C4263D3414553D065D3C44406
:100B00008C451CD2D5F8C412C009095C002A51D00A
:100B100003F00703194101F001013846FFF794FE85
:100B20000446002846D04FEA0812314635F0CCFE84
:100B30002B89012B37D83046FFF744FC33E05C1893
:100B400043449C421FD9980803F0030219F800702F
:100B500052004FF0020C01330CFA02F23A439C426D
:100B600009F800200FD99808D5F8BC7203F00302E9
:100B700017F800E052000CFA02F2013342EA0E02CA
:100B80009C423A54EFD1D5F8D432A1EB08029C42F2
:100B900038BF1C46120106EB08100021C5F8D442EC
:100BA00035F0D6FE34462046BDE8F88F012C01D83A
:100BB000FFF708FC00242046BDE8F88F08F1010883
:100BC0000EF1010EF24582D196E75C18A00804F000
:100BD000030719F800E07F004FF0030CA8EB0101B8
:100BE0000CFA07F72EEA0707012909F8007004F14B
:100BF000010410D003EB080EA708D5F8BC3204F0AE
:100C00000302D95D52000CFA02F2013421EA020219
:100C10007445DA55F0D1D5F8D0328342C2D9C5F83F
:100C2000D002BFE701463846BDE8F84FFFF70CBEDB
:100C30000129B7D011B14FF0010863E7D5F8BC42E4
:100C4000800903F0030359000322235C8A4023EA4E
:100C500002032354DFE700BF3400002010B58AB040
:100C6000044603A8FFF778FDDDE90430039A0090FD
:100C700007492046E2F756FFDDE9083206980549A4
:100C8000CDE90020079A2046E2F74CFF0AB010BDDC
:100C9000C40F0708E80F07082DE9F84F4E4F4F49DA
:100CA000D7F8C8228046E2F73DFFD7F8C012890086
:100CB0007AD0DFF85C91DFF85CA1002515F03F06E3
:100CC0004FEA950B33D005F003067600D7F8BC2227
:100CD00012F80B30334103F00303022B6CD0032BCB
:100CE00068D0012B53D1D7F8C8222B01D2585245D6
:100CF00064D03B4B9A4263D03A4B9A4264D03A4B11
:100D00009A425FD0394B9A425CD0394B9A425DD0BF
:100D1000384B9A425AD0384B9A425BD0374B9A4262
:100D200056D0374B9A4214BF68224D2230E0A94278
:100D300027D9D7F8BC0210F80B20920721D12C46F6
:100D400005E010F80CC04CFA02F2930708D1013408
:100D500004F003028C424FEA940C4FEA4202F0D1B5
:100D6000621B7F2A0DD9274992094046E2F7DAFE35
:100D7000D7F8C03224F03F05B5EB830F14D24FEA09
:100D8000950B2A0149464046E2F7CCFE9EE72E220B
:100D90001D494046E2F7C6FED7F8C0320135B5EB33
:100DA000830F4FEA830189D340461849BDE8F84FC5
:100DB000E2F70ABB6D22EBE73D22E9E75422E7E7C1
:100DC0004C22E5E75322E3E74422E1E74122DFE753
:100DD0004222DDE74622DBE734000020301007081E
:100DE000D84E0708C0460708B057070880570708BD
:100DF000E843070874430708684B0708044C0708D2
:100E0000445007084C100708701007082C100708FA
:100E100068100708F8580708064A0346506A1A6817
:100E20004168C1F31E018A4202D3521A1A60704708
:100E30000068F5E734000020014441F20553884280
:100E400004D398B2012838BF0120704710F8012B55
:100E500003EB43135340F2E7034B044A5A62002268
:100E6000C3F81422704700BF340000204C800708EC
:100E70002DE9F04781460F46002943D0FFF7DCFFFC
:100E8000214B5C6A82460CB9204637E094F9073062
:100E9000E668002B06F1FF364FF0000516DB013641
:100EA00004F11808B54215D32468ECE706EB0508F1
:100EB0004FEA580808F106033A4654F8231048460A
:100EC00035F0A6FD0028CCBF45464646731B012BD6
:100ED000ECD8E4E7236933F815309A4510D16369FB
:100EE0005B5D9F420CD158F825003A46494635F0E3
:100EF00057FD28B96068C0F31E002844BDE8F0879C
:100F00000135CFE70120F9E7340000202DE9F8434F
:100F100080460E46FFF7ACFF0246002840F0928064
:100F2000FF2E03D949494A480BF0C2F8494CD4F87E
:100F30001402751C90B1D4E986132B448B4229D935
:100F40002944FFF7DFF90746D8B90246D4F81C1246
:100F5000D4F81402FFF7D6F9C4F81472802D2F4686
:100F600038BF80273846FFF7B2F9C4F81402D0BB67
:100F70002846FFF7ACF9C4F8140298BB28460BF0DA
:100F8000A1FED4F818322B44C4F81832D4F8143225
:100F9000002BE3D0D4F81C32D4F814721F4441461D
:100FA0002B44324638464FF00008C4F81C3235F066
:100FB0008BFC07F8068031463846FFF73DFF636A31
:100FC000D3E90253AB4281462AD36D000A2D38BFC4
:100FD0000A25C5EBC5001830FFF779F948B9C4F800
:100FE0001402CBE72F460023C4F81872C4F81C3251
:100FF000D0E700F1180202EB8502616A026102EBA0
:10100000450242614A680160C968C0F80C80C2F3B9
:101010001E020A44416862F31E01C0E901156062C4
:10102000626AD2E90331526921F81390D654991DAE
:10103000626A42F82170D1680131D1605268C2F30E
:101040001E021A441046BDE8F88300BF26B9060800
:101050005C4807083400002010B5044635F0B2FCA7
:1010600001462046BDE81040FFF750BF07B501908C
:1010700001A8FFF7D1FE019A036933F8120003B00B
:101080005DF804FB07B5019001A8FFF7C5FE019BC1
:101090004269D05C03B05DF804FB07B5019001A87C
:1010A000FFF7BAFE019B063350F8230003B05DF84A
:1010B00004FB13B5019001A80C46FFF7ADFE019BA0
:1010C0004269D25C2260063350F8230002B010BDA2
:1010D0002DE9F8431D46002303600B6013602B606D
:1010E000164BDFF85C905C6A07468846164664B982
:1010F0002B68326813442B60BDE8F883336812F81C
:10110000010B0133034433600DE04C45F0D03B68E4
:1011100001333B60E268D8F800301344C8F800306F
:101120006269E368D1188A42E8D32046FFF776FC6B
:101130002B68246803442B60D9E700BF34000020EB
:101140004C8007082DE9F8430D4B0E4F5C6ADFF821
:101150003880DFF838900CB1BC4201D1BDE8F8838B
:10116000E36804F1180505EB8306B54201D3246852
:10117000F1E755F8042B41464846E2F7D3FCF4E783
:10118000340000204C8007082BB906080C370708EC
:1011900030B50023202511F8012F0AB9027030BDA7
:1011A000120600F1010420D513B12023037020465C
:1011B0000B78124A03F07F036BB9013A12F8013F32
:1011C00013F0800F044600F101000BD003F07F0301
:1011D00023700123DFE712F9014B002CFBDA013BFE
:1011E000DBB2E9E700F8013CE8E7012B04BF05703A
:1011F00020460B7800F8013B0223CCE732B9060801
:1012000038B54368194403689942054610D9037BF1
:101210001BB1084800210AF04BFF01F1100424F033
:101220000704083480682146FFF761F82C60A86045
:1012300038BD00BF5C48070870B504460E4611462D
:101240001546FFF7DDFFD4E901302A461844314640
:1012500035F06AFB63682B44636070BD70B5466807
:10126000B142044628BF31460D460121FFF7C8FFB1
:10127000A368681C5919721B184435F055FB636844
:10128000A06801336360284470BD38B50129044665
:1012900038BF01210025084621606560FFF70CF882
:1012A0002573A06038BD38B505460C460131FFF7FF
:1012B000ECFF6C6038BD0023C0E9013201230160FE
:1012C0000373704738B514460546FFF7DEFF024B3F
:1012D0002560636038BD00BF39120208037B10B57A
:1012E000044613B98068FFF70FF80023A36010BD10
:1012F00038B505461020FEF7DFFF29460446FFF704
:10130000C4FF204638BD10B5044648B1037B13B96D
:101310008068FEF7F9FF2046BDE81040FEF7F4BFF5
:1013200010BD000038B5037B04460D461BB10748CD
:1013300000210AF0BDFE016880682944FEF7D7FF4E
:101340002368A0601D442560184438BD5C48070828
:1013500038B504460D46FFF753FFD4E901301D446C
:101360006560184438BDD0E900239A4210B50446A0
:1013700002D10121FFF7D6FFD4E901320021D15477
:10138000A06810BD10B50C460121FFF7E1FF047005
:1013900010BD7F29F8B50C46CEB204D80121FFF765
:1013A000D7FF0670F8BD06F03F06B1F5006FC1F338
:1013B000871546F0800607D20221FFF7C9FF65F0C6
:1013C0003F0505704670EDE705F03F05B1F5803F3C
:1013D000C1F3073745F0800508D20321FFF7B8FFB6
:1013E00067F01F07077045708670DBE70421FFF781
:1013F000AFFFA40C07F03F0764F00F0467F07F070E
:10140000047047708570C670CCE738B5054608464D
:101410000C4635F0D7FA214602462846BDE838404A
:10142000FFF70ABF10B51446FFF718FF047010BD90
:1014300010B51446FFF712FF047010BD43688B42CD
:101440002CBF591A00214160704738B50446154633
:1014500062688A42084603D929448A4201D86060FA
:1014600038BDA368521A1844194435F05DFA636810
:101470005B1B6360F4E70346007893F90020002AC1
:101480000ADA00F07F004022104206D113F8012F43
:1014900002F0C001802904D0704720EA02005208FF
:1014A000F2E702F03F0242EA8010EFE7431C1846E1
:1014B0000133027802F0C002802AF8D07047034658
:1014C0000020994200D8704711F8012D02F0C002A7
:1014D000802A18BF0130F4E70346014400209942F6
:1014E0001A4600D87047127802F0C002802A03F131
:1014F000010318BF0130F2E77F289DBF024B185C43
:10150000C0F34000002070473B3707087F289DBF8D
:10151000024B185CC0F3C000002070473B3707083F
:101520007F289DBF024B185CC0F3800000207047ED
:101530003B3707087F289DBF024B185CC0F3801023
:10154000002070473B3707087F2809D8064B1B5CF3
:1015500013F00C0F06D1A0F15F03584258417047B9
:1015600000207047012070473B3707087F289DBF48
:10157000024B185CC0F30010002070473B3707088F
:101580007F289DBF024B185CC0F3401000207047BD
:101590003B37070808B50246FFF7E8FF00B12032E5
:1015A000104608BD08B50246FFF7EAFF00B1203A31
:1015B000104608BD3038092884BF20F020000738C5
:1015C000704710B502460144E5240020914203D83B
:1015D000B0FA80F0400917E012F8013B30B103F097
:1015E000C003802B11D10138C0B2EFE7BF2B09D95E
:1015F000F72B09D8DB0803F0060344FA03F303F0E2
:101600000300E3E71B06E1D510BD0020FCE702392B
:1016100081420B4603D31A880239002AF8D00233DC
:10162000181A40107047B2EB131FF0B504464FEA8A
:10163000131519D9501B01EB450103F00F030546A3
:1016400026460F4635B904EB400434F8023C03B992
:101650000138F0BD012D31F8022B18BF3A68DA408D
:1016600026F8022B013DECE70020F2E7F0B5059FDC
:101670000024D21B2546A7420FD100EB470601EB01
:10168000470100239A4213D106EB420315B126F815
:1016900012500233181A4010F0BD31F8146033F8BC
:1016A00014C06644354420F814502D0C0134E2E790
:1016B00031F813402C4426F81340250C0133E1E7A0
:1016C000F0B40E4604990025521A2C46A9420BD1BB
:1016D00000EB410506EB410600239A420FD105EBD2
:1016E0004201F0BCFFF793BF36F815703C4433F865
:1016F0001570E41B20F8154024140135E6E736F890
:1017000013100C4425F8134024140133E5E72DE9A8
:10171000F043079CDDF828E0DDE90876023915463C
:1017200084464FF6FF78A4EB020955B900EB42015D
:101730001FB1012320F812300231BDE8F043FFF75A
:1017400066BF31F8024F013D4444264405EB0904CD
:10175000A5422ABF33F8024B4FF6FF744444744449
:1017600086EA040E17FA8EF72CF8027B4FEA144E25
:10177000360C3F0CD9E738B502290446806838BFDB
:1017800002210D4618B12368B1EB930F07D9690008
:10179000FEF7ADFD2368A06065F39F03236038BDAD
:1017A00038B504460C20FEF787FD236822780546ED
:1017B00002F00102C3F39D0023F0030313432B60E7
:1017C00063686B604000FEF777FDA8602268A1683F
:1017D000C2F39D02520035F077F8284638BD994291
:1017E00010B511D313D800EB410002EB410209B947
:1017F000084610BD30F8023D32F8024D1B1B002B8D
:1018000002DB04D10139F2E74FF0FF30F1E70120AC
:10181000EFE710B5044638B18068FEF775FD204645
:10182000BDE81040FEF770BD10BD70B505460C4612
:101830000221FFF7A0FF002C2B78B4BF0122002269
:1018400062F30003AA682B70B4BF614221460123F2
:1018500088B2090C14461E4622F8020B03F101035C
:10186000F6D16E60208070BD0023C0E90033836034
:10187000704728B103789B0702D48068FEF744BD07
:10188000704738B504460D464968FFF774FF2A785B
:101890002378A06862F3000323706A686260A96815
:1018A0005200BDE8384035F00FB80A4629B9017832
:1018B000426062F3000101707047FFF7B6BF08B5E0
:1018C000FFF7D2FFBDE80840FFF7EFBF920042F0FC
:1018D000020210B402600022C0E901215DF8044B4D
:1018E0001946FFF7E2BFF8B59DF8187014461D467B
:1018F00004210646FFF73FFF22462B4627B1002D65
:101900000CDA624265EB4503317867F30001317010
:101910000021716052EA030102D1F8BD0027F3E70C
:10192000D6E901104C1C746020F81120120C42EA18
:1019300003421B0CEEE72DE9F3418DED010A019DF9
:101940000378EA0F62F300030370C5F30F4313F447
:10195000FF4380460BD198F8003023F0010388F84C
:1019600000300023C8F8043002B0BDE8F081B3F5C0
:10197000FF4FF0D0C5F3C754A4F17F06002EEADB79
:1019800005D1012102B0BDE8F041FFF74EBF162E90
:10199000C5F31605A4F16F07D8BFC6F1170645F4C5
:1019A00000054FEA2717D5BFF540963C00260936BB
:1019B000D4BF344624113946C8BF06F00F06FFF7DE
:1019C000DAFEC8F804702CB1D8F8080062000021D3
:1019D00034F0BEFF4EB1D8F8083005FA06F223F80D
:1019E0001420C6F11006F5400134A742BCD0D8F847
:1019F000083023F814502D0CF6E72DE9F84304467F
:101A00008F18C2F35B020D46511C9846089EFFF7E3
:101A1000B2FE237868F300032370AC4600221FFA5D
:101A200086FEBC456046626002D3401BBDE8F88379
:101A30000178A1F13003092B0CF1010C05D9A1F1BA
:101A40004103192B12D8A1F13703B342EDD2A0689C
:101A500090468146B8F1000F0FD100EB420113B15F
:101A600020F812300231091A4A10DAE7A1F16103B5
:101A7000192BDAD8A1F15703E7E7B9F800100EFBEC
:101A8000013329F8023B08F1FF381B0CE2E7F8B5F7
:101A9000044615461E4641B3531E1E444FF0FF3701
:101AA000E9000F3109092046FFF765FE2378002180
:101AB00023F0010323706160CDB10F294FF00003C3
:101AC0000BDC32788A401343013D9BB201F10801DF
:101AD0003E4402D00F29F4DD10216268501C606082
:101AE000A068103920F81230E6E70127D8E7D4E9DA
:101AF000011000EB4101FFF78AFD6060F8BD38B5C9
:101B000005780B7805F0010203F001030446981AEA
:101B100008D1D1E90132D4E90110FFF760FEEB07EB
:101B200048BF404238BD884210B5044601D0FFF797
:101B3000A8FE237823F00103237010BD884210B55E
:101B4000044601D0FFF79DFE63683BB12378C3F3E1
:101B5000000282F0010262F30003237010BD88428C
:101B60001FB5044601D0FFF78CFE626862B90121FF
:101B70002046FFF700FEA2680123138063602378EC
:101B800043F00103237010E02378D9070FD523F029
:101B90000103237001230093A168ADF80E300846BD
:101BA0000DF10E03FFF78CFD606004B010BD511CF9
:101BB0002046FFF7E0FD01230093D4E90121ADF8B1
:101BC0000E3008460DF10E03FFF750FD6060D6E7BA
:101BD0004B682DE9F04705460E46144603B12AB975
:101BE00031462846BDE8F047FFF74BBE02F10F0132
:101BF0004FEA111803EB1111FFF7BDFDD6E90123E0
:101C000008EB0207A96807F1004014F00F0400F187
:101C1000FF3008BF10244FEA400901EB400003EBFE
:101C20004203114686464FF0000CC4F1100409BB74
:101C30006FF001035A4383182CFA04FCC8F1010821
:101C400020F802C003EB48034FEA4802184652420C
:101C500034F07EFE09F1020903464B4417B133F814
:101C6000022D9AB16F6032782B7862F300032B70EB
:101C7000BDE8F08733F802AD4AEA0C0C2CFA04FAFE
:101C80002EF802A94FEA0C4C0139D0E7013FE5E7F5
:101C90002DE9FF410D4649680646144601B132B9A7
:101CA0002946304604B0BDE8F041FFF7EABDFFF732
:101CB00062FDB768D5F808806A6823464146384611
:101CC000FFF7B1FC70602978337861F3000333705B
:101CD000DB0702460AD500236968ADF80E302009FB
:101CE000994201D0834204D181420AD804B0BDE8B0
:101CF000F08138F813509DB101238142ADF80E30C8
:101D000012D904F00F04012338F8101003FA04F478
:101D1000013C214206D1BDF80E30002BE6D003E095
:101D20000133DDE7ADF80E30012312B93B8073605B
:101D3000DCE7009339460DF10E033846FFF796FCB9
:101D40007060D3E773B514460D46D2E901320646FA
:101D5000D1E90110FFF743FD0028A2BF23462C461E
:101D60001D4623782A7861685340DB071AD4013175
:101D70003046FFF700FD6B680093D4E90121AB68A2
:101D8000B068FFF773FC706023783278C3F3000308
:101D900000280CBF002303F0010363F3000232703C
:101DA00002B070BD3046FFF7E6FC6B680093D4E9E3
:101DB0000121AB68B068FFF783FCE4E7F7B5144690
:101DC0000F46D2E901320546D1E90110FFF707FDC0
:101DD0000028A2BF23463C461F4623783A78616814
:101DE00083EA0203ACBF00260126DB0719D50131C7
:101DF0002846FFF7C0FC7B680093D4E90121BB684B
:101E0000A868FFF733FC686028B1237803F001006D
:101E10000EB180F001002B7860F300032B7003B04B
:101E2000F0BD2846FFF7A7FC7B680093D4E90121A9
:101E3000BB68A868FFF744FCE5E72DE9F04F1546BD
:101E40004A686B689A4224BF2B460D460C4628BF51
:101E50001C462B786968DB0785B0064622D42378B8
:101E600013F001071ED1FFF786FCD4E9011CB0680E
:101E7000AD683B4699420CD100EB4101FFF7C7FB2F
:101E800000237060327863F30002327005B0BDE861
:101E9000F08F35F813203CF81340224020F813202F
:101EA0000133E7E701313046FFF765FC2F782378EF
:101EB000D5F804C0B068A26887EA0301C94301F0FD
:101EC000010E41F3000189B207F0010847F3000752
:101ED0000191B9B20291A968A1F1020B616803F006
:101EE000010943F300039BB2A1EB0C010093674689
:101EF000824603918FB900EB4C01BEF1000F03D075
:101F0000012320F81C300231FFF781FB706022783A
:101F10002B78C2F300021340B4E73BF8021F029B88
:101F20005940039B013F8844D919B9429BBF32F8FD
:101F3000021B009B009959408944019B08EA090152
:101F400059401EFA81F12AF8021B4FEA19494FEA5B
:101F500018484FEA114ECDE72DE9F84F14464A686C
:101F600063689A4224BF23460C460D4628BF1D468F
:101F700023786168DB07064632D42A7812F001071D
:101F80002ED1FFF7F8FBD5E9013EA1686468D6F8C9
